{
  "_format": "hh-sol-artifact-1",
  "contractName": "LandRegistry",
  "sourceName": "contracts/LandRegistry.sol",
  "abi": [
    {
      "inputs": [],
      "stateMutability": "nonpayable",
      "type": "constructor"
    },
    {
      "anonymous": false,
      "inputs": [
        {
          "indexed": true,
          "internalType": "uint256",
          "name": "transactionId",
          "type": "uint256"
        },
        {
          "indexed": false,
          "internalType": "address",
          "name": "approver",
          "type": "address"
        },
        {
          "indexed": false,
          "internalType": "enum LandRegistry.ApprovalStatus",
          "name": "status",
          "type": "uint8"
        }
      ],
      "name": "ApprovalReceived",
      "type": "event"
    },
    {
      "anonymous": false,
      "inputs": [
        {
          "indexed": false,
          "internalType": "address",
          "name": "authority",
          "type": "address"
        }
      ],
      "name": "AuthorityVerified",
      "type": "event"
    },
    {
      "anonymous": false,
      "inputs": [
        {
          "indexed": true,
          "internalType": "uint256",
          "name": "id",
          "type": "uint256"
        },
        {
          "indexed": true,
          "internalType": "address",
          "name": "owner",
          "type": "address"
        },
        {
          "indexed": false,
          "internalType": "string",
          "name": "location",
          "type": "string"
        },
        {
          "indexed": false,
          "internalType": "string",
          "name": "ipfsHash",
          "type": "string"
        },
        {
          "indexed": false,
          "internalType": "uint256",
          "name": "timestamp",
          "type": "uint256"
        }
      ],
      "name": "LandRegistered",
      "type": "event"
    },
    {
      "anonymous": false,
      "inputs": [
        {
          "indexed": true,
          "internalType": "uint256",
          "name": "transactionId",
          "type": "uint256"
        },
        {
          "indexed": true,
          "internalType": "uint256",
          "name": "landId",
          "type": "uint256"
        },
        {
          "indexed": false,
          "internalType": "address",
          "name": "from",
          "type": "address"
        },
        {
          "indexed": false,
          "internalType": "address",
          "name": "to",
          "type": "address"
        }
      ],
      "name": "LandTransferInitiated",
      "type": "event"
    },
    {
      "anonymous": false,
      "inputs": [
        {
          "indexed": true,
          "internalType": "uint256",
          "name": "transactionId",
          "type": "uint256"
        },
        {
          "indexed": true,
          "internalType": "uint256",
          "name": "landId",
          "type": "uint256"
        },
        {
          "indexed": false,
          "internalType": "address",
          "name": "from",
          "type": "address"
        },
        {
          "indexed": false,
          "internalType": "address",
          "name": "to",
          "type": "address"
        }
      ],
      "name": "LandTransferred",
      "type": "event"
    },
    {
      "anonymous": false,
      "inputs": [
        {
          "indexed": true,
          "internalType": "uint256",
          "name": "registrationId",
          "type": "uint256"
        },
        {
          "indexed": false,
          "internalType": "address",
          "name": "approver",
          "type": "address"
        }
      ],
      "name": "RegistrationApproved",
      "type": "event"
    },
    {
      "anonymous": false,
      "inputs": [
        {
          "indexed": true,
          "internalType": "uint256",
          "name": "registrationId",
          "type": "uint256"
        },
        {
          "indexed": false,
          "internalType": "address",
          "name": "prospectiveOwner",
          "type": "address"
        },
        {
          "indexed": false,
          "internalType": "string",
          "name": "location",
          "type": "string"
        },
        {
          "indexed": false,
          "internalType": "string",
          "name": "ipfsHash",
          "type": "string"
        }
      ],
      "name": "RegistrationInitiated",
      "type": "event"
    },
    {
      "anonymous": false,
      "inputs": [
        {
          "indexed": true,
          "internalType": "uint256",
          "name": "registrationId",
          "type": "uint256"
        },
        {
          "indexed": false,
          "internalType": "address",
          "name": "approver",
          "type": "address"
        }
      ],
      "name": "RegistrationRejected",
      "type": "event"
    },
    {
      "anonymous": false,
      "inputs": [
        {
          "indexed": true,
          "internalType": "uint256",
          "name": "registrationId",
          "type": "uint256"
        }
      ],
      "name": "RegistrationResubmitted",
      "type": "event"
    },
    {
      "anonymous": false,
      "inputs": [
        {
          "indexed": true,
          "internalType": "address",
          "name": "user",
          "type": "address"
        }
      ],
      "name": "UserApproved",
      "type": "event"
    },
    {
      "anonymous": false,
      "inputs": [
        {
          "indexed": true,
          "internalType": "address",
          "name": "user",
          "type": "address"
        }
      ],
      "name": "UserRejected",
      "type": "event"
    },
    {
      "anonymous": false,
      "inputs": [
        {
          "indexed": true,
          "internalType": "address",
          "name": "user",
          "type": "address"
        },
        {
          "indexed": false,
          "internalType": "string",
          "name": "nrc",
          "type": "string"
        }
      ],
      "name": "UserRequested",
      "type": "event"
    },
    {
      "inputs": [],
      "name": "COMMISSIONER_OF_LAND",
      "outputs": [
        {
          "internalType": "address",
          "name": "",
          "type": "address"
        }
      ],
      "stateMutability": "view",
      "type": "function"
    },
    {
      "inputs": [],
      "name": "KITWE_CITY_COUNCIL",
      "outputs": [
        {
          "internalType": "address",
          "name": "",
          "type": "address"
        }
      ],
      "stateMutability": "view",
      "type": "function"
    },
    {
      "inputs": [],
      "name": "LANDS_DEEDS_REGISTRY",
      "outputs": [
        {
          "internalType": "address",
          "name": "",
          "type": "address"
        }
      ],
      "stateMutability": "view",
      "type": "function"
    },
    {
      "inputs": [],
      "name": "TREASURY",
      "outputs": [
        {
          "internalType": "address",
          "name": "",
          "type": "address"
        }
      ],
      "stateMutability": "view",
      "type": "function"
    },
    {
      "inputs": [
        {
          "internalType": "uint256",
          "name": "_registrationId",
          "type": "uint256"
        }
      ],
      "name": "approveRegistration",
      "outputs": [],
      "stateMutability": "nonpayable",
      "type": "function"
    },
    {
      "inputs": [
        {
          "internalType": "uint256",
          "name": "_transactionId",
          "type": "uint256"
        }
      ],
      "name": "approveTransfer",
      "outputs": [],
      "stateMutability": "nonpayable",
      "type": "function"
    },
    {
      "inputs": [
        {
          "internalType": "address",
          "name": "_user",
          "type": "address"
        }
      ],
      "name": "approveUser",
      "outputs": [],
      "stateMutability": "nonpayable",
      "type": "function"
    },
    {
      "inputs": [
        {
          "internalType": "address",
          "name": "",
          "type": "address"
        }
      ],
      "name": "approvedUsers",
      "outputs": [
        {
          "internalType": "bool",
          "name": "",
          "type": "bool"
        }
      ],
      "stateMutability": "view",
      "type": "function"
    },
    {
      "inputs": [
        {
          "internalType": "uint256",
          "name": "",
          "type": "uint256"
        }
      ],
      "name": "authorities",
      "outputs": [
        {
          "internalType": "address",
          "name": "",
          "type": "address"
        }
      ],
      "stateMutability": "view",
      "type": "function"
    },
    {
      "inputs": [],
      "name": "commissioner",
      "outputs": [
        {
          "internalType": "address",
          "name": "",
          "type": "address"
        }
      ],
      "stateMutability": "view",
      "type": "function"
    },
    {
      "inputs": [
        {
          "internalType": "uint256",
          "name": "_id",
          "type": "uint256"
        }
      ],
      "name": "getLand",
      "outputs": [
        {
          "components": [
            {
              "internalType": "uint256",
              "name": "id",
              "type": "uint256"
            },
            {
              "internalType": "address",
              "name": "owner",
              "type": "address"
            },
            {
              "internalType": "string",
              "name": "location",
              "type": "string"
            },
            {
              "internalType": "string",
              "name": "ipfsHash",
              "type": "string"
            },
            {
              "internalType": "uint256",
              "name": "timestamp",
              "type": "uint256"
            }
          ],
          "internalType": "struct LandRegistry.Land",
          "name": "",
          "type": "tuple"
        }
      ],
      "stateMutability": "view",
      "type": "function"
    },
    {
      "inputs": [
        {
          "internalType": "address",
          "name": "user",
          "type": "address"
        }
      ],
      "name": "getPendingUserNRC",
      "outputs": [
        {
          "internalType": "string",
          "name": "",
          "type": "string"
        }
      ],
      "stateMutability": "view",
      "type": "function"
    },
    {
      "inputs": [],
      "name": "getPendingUsers",
      "outputs": [
        {
          "internalType": "address[]",
          "name": "",
          "type": "address[]"
        }
      ],
      "stateMutability": "view",
      "type": "function"
    },
    {
      "inputs": [
        {
          "internalType": "uint256",
          "name": "_registrationId",
          "type": "uint256"
        }
      ],
      "name": "getRegistration",
      "outputs": [
        {
          "internalType": "uint256",
          "name": "id",
          "type": "uint256"
        },
        {
          "internalType": "address",
          "name": "prospectiveOwner",
          "type": "address"
        },
        {
          "internalType": "string",
          "name": "location",
          "type": "string"
        },
        {
          "internalType": "string",
          "name": "ipfsHash",
          "type": "string"
        },
        {
          "internalType": "bool",
          "name": "executed",
          "type": "bool"
        },
        {
          "internalType": "bool",
          "name": "isRejected",
          "type": "bool"
        },
        {
          "internalType": "uint256",
          "name": "rejectionTimestamp",
          "type": "uint256"
        }
      ],
      "stateMutability": "view",
      "type": "function"
    },
    {
      "inputs": [
        {
          "internalType": "uint256",
          "name": "_registrationId",
          "type": "uint256"
        }
      ],
      "name": "getRegistrationApprovals",
      "outputs": [
        {
          "internalType": "enum LandRegistry.ApprovalStatus",
          "name": "",
          "type": "uint8"
        },
        {
          "internalType": "enum LandRegistry.ApprovalStatus",
          "name": "",
          "type": "uint8"
        },
        {
          "internalType": "enum LandRegistry.ApprovalStatus",
          "name": "",
          "type": "uint8"
        },
        {
          "internalType": "enum LandRegistry.ApprovalStatus",
          "name": "",
          "type": "uint8"
        }
      ],
      "stateMutability": "view",
      "type": "function"
    },
    {
      "inputs": [
        {
          "internalType": "uint256",
          "name": "_transactionId",
          "type": "uint256"
        }
      ],
      "name": "getTransaction",
      "outputs": [
        {
          "internalType": "uint256",
          "name": "landId",
          "type": "uint256"
        },
        {
          "internalType": "address",
          "name": "newOwner",
          "type": "address"
        },
        {
          "internalType": "address",
          "name": "initiator",
          "type": "address"
        },
        {
          "internalType": "bool",
          "name": "executed",
          "type": "bool"
        }
      ],
      "stateMutability": "view",
      "type": "function"
    },
    {
      "inputs": [
        {
          "internalType": "uint256",
          "name": "_transactionId",
          "type": "uint256"
        }
      ],
      "name": "getTransactionApprovals",
      "outputs": [
        {
          "internalType": "enum LandRegistry.ApprovalStatus",
          "name": "",
          "type": "uint8"
        },
        {
          "internalType": "enum LandRegistry.ApprovalStatus",
          "name": "",
          "type": "uint8"
        },
        {
          "internalType": "enum LandRegistry.ApprovalStatus",
          "name": "",
          "type": "uint8"
        },
        {
          "internalType": "enum LandRegistry.ApprovalStatus",
          "name": "",
          "type": "uint8"
        }
      ],
      "stateMutability": "view",
      "type": "function"
    },
    {
      "inputs": [
        {
          "internalType": "string",
          "name": "_location",
          "type": "string"
        },
        {
          "internalType": "string",
          "name": "_ipfsHash",
          "type": "string"
        }
      ],
      "name": "initiateRegistration",
      "outputs": [],
      "stateMutability": "nonpayable",
      "type": "function"
    },
    {
      "inputs": [
        {
          "internalType": "uint256",
          "name": "_landId",
          "type": "uint256"
        },
        {
          "internalType": "address",
          "name": "_newOwner",
          "type": "address"
        }
      ],
      "name": "initiateTransfer",
      "outputs": [],
      "stateMutability": "nonpayable",
      "type": "function"
    },
    {
      "inputs": [
        {
          "internalType": "address",
          "name": "user",
          "type": "address"
        }
      ],
      "name": "isApproved",
      "outputs": [
        {
          "internalType": "bool",
          "name": "",
          "type": "bool"
        }
      ],
      "stateMutability": "view",
      "type": "function"
    },
    {
      "inputs": [
        {
          "internalType": "address",
          "name": "_address",
          "type": "address"
        }
      ],
      "name": "isAuthority",
      "outputs": [
        {
          "internalType": "bool",
          "name": "",
          "type": "bool"
        }
      ],
      "stateMutability": "pure",
      "type": "function"
    },
    {
      "inputs": [],
      "name": "landCounter",
      "outputs": [
        {
          "internalType": "uint256",
          "name": "",
          "type": "uint256"
        }
      ],
      "stateMutability": "view",
      "type": "function"
    },
    {
      "inputs": [
        {
          "internalType": "uint256",
          "name": "",
          "type": "uint256"
        }
      ],
      "name": "lands",
      "outputs": [
        {
          "internalType": "uint256",
          "name": "id",
          "type": "uint256"
        },
        {
          "internalType": "address",
          "name": "owner",
          "type": "address"
        },
        {
          "internalType": "string",
          "name": "location",
          "type": "string"
        },
        {
          "internalType": "string",
          "name": "ipfsHash",
          "type": "string"
        },
        {
          "internalType": "uint256",
          "name": "timestamp",
          "type": "uint256"
        }
      ],
      "stateMutability": "view",
      "type": "function"
    },
    {
      "inputs": [
        {
          "internalType": "string",
          "name": "",
          "type": "string"
        }
      ],
      "name": "locationExists",
      "outputs": [
        {
          "internalType": "bool",
          "name": "",
          "type": "bool"
        }
      ],
      "stateMutability": "view",
      "type": "function"
    },
    {
      "inputs": [],
      "name": "registrationCounter",
      "outputs": [
        {
          "internalType": "uint256",
          "name": "",
          "type": "uint256"
        }
      ],
      "stateMutability": "view",
      "type": "function"
    },
    {
      "inputs": [
        {
          "internalType": "uint256",
          "name": "_registrationId",
          "type": "uint256"
        }
      ],
      "name": "rejectRegistration",
      "outputs": [],
      "stateMutability": "nonpayable",
      "type": "function"
    },
    {
      "inputs": [
        {
          "internalType": "uint256",
          "name": "_transactionId",
          "type": "uint256"
        }
      ],
      "name": "rejectTransfer",
      "outputs": [],
      "stateMutability": "nonpayable",
      "type": "function"
    },
    {
      "inputs": [
        {
          "internalType": "address",
          "name": "_user",
          "type": "address"
        }
      ],
      "name": "rejectUser",
      "outputs": [],
      "stateMutability": "nonpayable",
      "type": "function"
    },
    {
      "inputs": [
        {
          "internalType": "string",
          "name": "_nrc",
          "type": "string"
        }
      ],
      "name": "requestApproval",
      "outputs": [],
      "stateMutability": "nonpayable",
      "type": "function"
    },
    {
      "inputs": [
        {
          "internalType": "uint256",
          "name": "_registrationId",
          "type": "uint256"
        },
        {
          "internalType": "string",
          "name": "_newLocation",
          "type": "string"
        },
        {
          "internalType": "string",
          "name": "_newIpfsHash",
          "type": "string"
        }
      ],
      "name": "resubmitRegistration",
      "outputs": [],
      "stateMutability": "nonpayable",
      "type": "function"
    },
    {
      "inputs": [],
      "name": "transactionCounter",
      "outputs": [
        {
          "internalType": "uint256",
          "name": "",
          "type": "uint256"
        }
      ],
      "stateMutability": "view",
      "type": "function"
    }
  ],
  "bytecode": "0x608060405260405180608001604052807370997970c51812dc3a010c7d01b50e0d17dc79c873ffffffffffffffffffffffffffffffffffffffff1673ffffffffffffffffffffffffffffffffffffffff1681526020017315d34aaf54267db7d7c367839aaf71a00a2c6a6573ffffffffffffffffffffffffffffffffffffffff1673ffffffffffffffffffffffffffffffffffffffff168152602001739965507d1a55bcc2695c58ba16fb37d819b0a4dc73ffffffffffffffffffffffffffffffffffffffff1673ffffffffffffffffffffffffffffffffffffffff16815260200173976ea74026e726554db657fa54763abd0c3a0aa973ffffffffffffffffffffffffffffffffffffffff1673ffffffffffffffffffffffffffffffffffffffff168152506000906004610135929190610243565b5034801561014257600080fd5b507315d34aaf54267db7d7c367839aaf71a00a2c6a65600460006101000a81548173ffffffffffffffffffffffffffffffffffffffff021916908373ffffffffffffffffffffffffffffffffffffffff16021790555060005b600481101561023d576001600560008084600481106101bd576101bc6102dd565b5b0160009054906101000a900473ffffffffffffffffffffffffffffffffffffffff1673ffffffffffffffffffffffffffffffffffffffff1673ffffffffffffffffffffffffffffffffffffffff16815260200190815260200160002060006101000a81548160ff021916908315150217905550808060010191505061019b565b5061030c565b82600481019282156102af579160200282015b828111156102ae5782518260006101000a81548173ffffffffffffffffffffffffffffffffffffffff021916908373ffffffffffffffffffffffffffffffffffffffff16021790555091602001919060010190610256565b5b5090506102bc91906102c0565b5090565b5b808211156102d95760008160009055506001016102c1565b5090565b7f4e487b7100000000000000000000000000000000000000000000000000000000600052603260045260246000fd5b615dfa8061031b6000396000f3fe608060405234801561001057600080fd5b50600436106101e55760003560e01c8063967615951161010f578063d624fdb6116100a2578063f02dd53f11610071578063f02dd53f146105d9578063f189449814610609578063f2b75ce114610627578063fe09b5ec14610645576101e5565b8063d624fdb61461054f578063dd3bb49d1461056b578063e261f1e514610589578063e9b891a2146105bd576101e5565b8063b4f3fcf6116100de578063b4f3fcf6146104af578063c1f771fb146104cd578063c80757c714610503578063cacca4a014610533576101e5565b806396761595146104125780639e29ce181461042e578063a4ee77f31461044c578063af0b90bb1461047f576101e5565b806333ea3dc8116101875780634dc92885116101565780634dc928851461037a57806358b8d56114610396578063673448dd146103b2578063893cd3be146103e2576101e5565b806333ea3dc8146102dd5780633a371b8e146103105780633a3952d01461032c578063494503d41461034a576101e5565b806314e887e8116101c357806314e887e8146102555780632330f2471461027357806323fafbe8146102a35780632d2c5565146102bf576101e5565b80630362e14d146101ea57806310697ac11461020657806312effc3214610239575b600080fd5b61020460048036038101906101ff9190614221565b610663565b005b610220600480360381019061021b91906142d8565b610b15565b604051610230949392919061437c565b60405180910390f35b610253600480360381019061024e91906142d8565b610d1f565b005b61025d610f7f565b60405161026a91906143d0565b60405180910390f35b61028d60048036038101906102889190614449565b610f85565b60405161029a9190614491565b60405180910390f35b6102bd60048036038101906102b891906142d8565b6110af565b005b6102c7611324565b6040516102d491906144bb565b60405180910390f35b6102f760048036038101906102f291906142d8565b61133c565b60405161030794939291906144d6565b60405180910390f35b61032a6004803603810190610325919061451b565b61141b565b005b6103346119ab565b60405161034191906144bb565b60405180910390f35b610364600480360381019061035f91906142d8565b6119c3565b60405161037191906144bb565b60405180910390f35b610394600480360381019061038f9190614449565b6119f9565b005b6103b060048036038101906103ab919061455b565b611b67565b005b6103cc60048036038101906103c79190614449565b612079565b6040516103d99190614491565b60405180910390f35b6103fc60048036038101906103f79190614449565b6120cf565b6040516104099190614491565b60405180910390f35b61042c600480360381019061042791906145f0565b6120ef565b005b6104366123ac565b60405161044391906143d0565b60405180910390f35b610466600480360381019061046191906142d8565b6123b2565b604051610476949392919061437c565b60405180910390f35b61049960048036038101906104949190614449565b6125bc565b6040516104a691906146cd565b60405180910390f35b6104b76126fd565b6040516104c491906144bb565b60405180910390f35b6104e760048036038101906104e291906142d8565b612715565b6040516104fa97969594939291906146ef565b60405180910390f35b61051d6004803603810190610518919061489c565b612914565b60405161052a9190614491565b60405180910390f35b61054d600480360381019061054891906142d8565b61294a565b005b61056960048036038101906105649190614449565b612bc2565b005b610573612d88565b60405161058091906144bb565b60405180910390f35b6105a3600480360381019061059e91906142d8565b612da0565b6040516105b49594939291906148e5565b60405180910390f35b6105d760048036038101906105d291906142d8565b612f06565b005b6105f360048036038101906105ee91906142d8565b6131a0565b6040516106009190614a2b565b60405180910390f35b610611613453565b60405161061e91906144bb565b60405180910390f35b61062f613479565b60405161063c91906143d0565b60405180910390f35b61064d61347f565b60405161065a9190614afc565b60405180910390f35b600560003373ffffffffffffffffffffffffffffffffffffffff1673ffffffffffffffffffffffffffffffffffffffff16815260200190815260200160002060009054906101000a900460ff166106ef576040517f08c379a00000000000000000000000000000000000000000000000000000000081526004016106e690614b6a565b60405180910390fd5b60008484905011610735576040517f08c379a000000000000000000000000000000000000000000000000000000000815260040161072c90614bd6565b60405180910390fd5b6000828290501161077b576040517f08c379a000000000000000000000000000000000000000000000000000000000815260040161077290614c42565b60405180910390fd5b600b848460405161078d929190614c92565b908152602001604051809103902060009054906101000a900460ff16156107e9576040517f08c379a00000000000000000000000000000000000000000000000000000000081526004016107e090614cf7565b60405180910390fd5b600e60008154809291906107fc90614d46565b91905055506000600a6000600e5481526020019081526020016000209050600e548160000181905550338160010160006101000a81548173ffffffffffffffffffffffffffffffffffffffff021916908373ffffffffffffffffffffffffffffffffffffffff160217905550848482600201918261087b929190614fa5565b50828282600301918261088f929190614fa5565b5060008160040160006101000a81548160ff02191690831515021790555060008160040160016101000a81548160ff0219169083151502179055506000816005018190555060008160060160007370997970c51812dc3a010c7d01b50e0d17dc79c873ffffffffffffffffffffffffffffffffffffffff1673ffffffffffffffffffffffffffffffffffffffff16815260200190815260200160002060006101000a81548160ff0219169083600281111561094d5761094c614305565b5b021790555060008160060160007315d34aaf54267db7d7c367839aaf71a00a2c6a6573ffffffffffffffffffffffffffffffffffffffff1673ffffffffffffffffffffffffffffffffffffffff16815260200190815260200160002060006101000a81548160ff021916908360028111156109cb576109ca614305565b5b02179055506000816006016000739965507d1a55bcc2695c58ba16fb37d819b0a4dc73ffffffffffffffffffffffffffffffffffffffff1673ffffffffffffffffffffffffffffffffffffffff16815260200190815260200160002060006101000a81548160ff02191690836002811115610a4957610a48614305565b5b0217905550600081600601600073976ea74026e726554db657fa54763abd0c3a0aa973ffffffffffffffffffffffffffffffffffffffff1673ffffffffffffffffffffffffffffffffffffffff16815260200190815260200160002060006101000a81548160ff02191690836002811115610ac757610ac6614305565b5b0217905550600e547f95ff42ead55431b21c737c50609187c4093c9b71bcd204f2d0db50a78caf132c3387878787604051610b069594939291906150a2565b60405180910390a25050505050565b600080600080600085118015610b2d5750600e548511155b610b6c576040517f08c379a0000000000000000000000000000000000000000000000000000000008152600401610b6390615137565b60405180910390fd5b6000600a600087815260200190815260200160002090508060060160007370997970c51812dc3a010c7d01b50e0d17dc79c873ffffffffffffffffffffffffffffffffffffffff1673ffffffffffffffffffffffffffffffffffffffff16815260200190815260200160002060009054906101000a900460ff168160060160007315d34aaf54267db7d7c367839aaf71a00a2c6a6573ffffffffffffffffffffffffffffffffffffffff1673ffffffffffffffffffffffffffffffffffffffff16815260200190815260200160002060009054906101000a900460ff16826006016000739965507d1a55bcc2695c58ba16fb37d819b0a4dc73ffffffffffffffffffffffffffffffffffffffff1673ffffffffffffffffffffffffffffffffffffffff16815260200190815260200160002060009054906101000a900460ff1683600601600073976ea74026e726554db657fa54763abd0c3a0aa973ffffffffffffffffffffffffffffffffffffffff1673ffffffffffffffffffffffffffffffffffffffff16815260200190815260200160002060009054906101000a900460ff169450945094509450509193509193565b610d2833610f85565b610d67576040517f08c379a0000000000000000000000000000000000000000000000000000000008152600401610d5e906151a3565b60405180910390fd5b600081118015610d795750600d548111155b610db8576040517f08c379a0000000000000000000000000000000000000000000000000000000008152600401610daf9061520f565b60405180910390fd5b60006009600083815260200190815260200160002090508060020160149054906101000a900460ff1615610e21576040517f08c379a0000000000000000000000000000000000000000000000000000000008152600401610e189061527b565b60405180910390fd5b60006002811115610e3557610e34614305565b5b8160030160003373ffffffffffffffffffffffffffffffffffffffff1673ffffffffffffffffffffffffffffffffffffffff16815260200190815260200160002060009054906101000a900460ff166002811115610e9657610e95614305565b5b14610ed6576040517f08c379a0000000000000000000000000000000000000000000000000000000008152600401610ecd906152e7565b60405180910390fd5b60028160030160003373ffffffffffffffffffffffffffffffffffffffff1673ffffffffffffffffffffffffffffffffffffffff16815260200190815260200160002060006101000a81548160ff02191690836002811115610f3b57610f3a614305565b5b0217905550817ffd911481fed968526718a75a9df9e9d6d75c5330b72478eb1d20fbf3e69cb17d336002604051610f73929190615307565b60405180910390a25050565b600d5481565b60007370997970c51812dc3a010c7d01b50e0d17dc79c873ffffffffffffffffffffffffffffffffffffffff168273ffffffffffffffffffffffffffffffffffffffff16148061101457507315d34aaf54267db7d7c367839aaf71a00a2c6a6573ffffffffffffffffffffffffffffffffffffffff168273ffffffffffffffffffffffffffffffffffffffff16145b8061105e5750739965507d1a55bcc2695c58ba16fb37d819b0a4dc73ffffffffffffffffffffffffffffffffffffffff168273ffffffffffffffffffffffffffffffffffffffff16145b806110a8575073976ea74026e726554db657fa54763abd0c3a0aa973ffffffffffffffffffffffffffffffffffffffff168273ffffffffffffffffffffffffffffffffffffffff16145b9050919050565b6110b833610f85565b6110f7576040517f08c379a00000000000000000000000000000000000000000000000000000000081526004016110ee906151a3565b60405180910390fd5b6000811180156111095750600e548111155b611148576040517f08c379a000000000000000000000000000000000000000000000000000000000815260040161113f90615137565b60405180910390fd5b6000600a600083815260200190815260200160002090508060040160009054906101000a900460ff16156111b1576040517f08c379a00000000000000000000000000000000000000000000000000000000081526004016111a89061537c565b60405180910390fd5b600060028111156111c5576111c4614305565b5b8160060160003373ffffffffffffffffffffffffffffffffffffffff1673ffffffffffffffffffffffffffffffffffffffff16815260200190815260200160002060009054906101000a900460ff16600281111561122657611225614305565b5b14611266576040517f08c379a000000000000000000000000000000000000000000000000000000000815260040161125d906152e7565b60405180910390fd5b60018160060160003373ffffffffffffffffffffffffffffffffffffffff1673ffffffffffffffffffffffffffffffffffffffff16815260200190815260200160002060006101000a81548160ff021916908360028111156112cb576112ca614305565b5b0217905550817f5bb7b658dde929334c584f284e7cdfd4d5df4b5b995d90ba9aadaaaa5fdf0abb3360405161130091906144bb565b60405180910390a26113118261350d565b156113205761131f8261376d565b5b5050565b73976ea74026e726554db657fa54763abd0c3a0aa981565b6000806000806000851180156113545750600d548511155b611393576040517f08c379a000000000000000000000000000000000000000000000000000000000815260040161138a9061520f565b60405180910390fd5b600060096000878152602001908152602001600020905080600001548160010160009054906101000a900473ffffffffffffffffffffffffffffffffffffffff168260020160009054906101000a900473ffffffffffffffffffffffffffffffffffffffff168360020160149054906101000a900460ff169450945094509450509193509193565b8160008111801561142e5750600c548111155b61146d576040517f08c379a0000000000000000000000000000000000000000000000000000000008152600401611464906153e8565b60405180910390fd5b600073ffffffffffffffffffffffffffffffffffffffff166008600083815260200190815260200160002060010160009054906101000a900473ffffffffffffffffffffffffffffffffffffffff1673ffffffffffffffffffffffffffffffffffffffff1603611512576040517f08c379a000000000000000000000000000000000000000000000000000000000815260040161150990615454565b60405180910390fd5b6008600084815260200190815260200160002060010160009054906101000a900473ffffffffffffffffffffffffffffffffffffffff1673ffffffffffffffffffffffffffffffffffffffff163373ffffffffffffffffffffffffffffffffffffffff16146115b6576040517f08c379a00000000000000000000000000000000000000000000000000000000081526004016115ad906154c0565b60405180910390fd5b600073ffffffffffffffffffffffffffffffffffffffff168273ffffffffffffffffffffffffffffffffffffffff1603611625576040517f08c379a000000000000000000000000000000000000000000000000000000000815260040161161c9061552c565b60405180910390fd5b3373ffffffffffffffffffffffffffffffffffffffff168273ffffffffffffffffffffffffffffffffffffffff1603611693576040517f08c379a000000000000000000000000000000000000000000000000000000000815260040161168a90615598565b60405180910390fd5b600d60008154809291906116a690614d46565b9190505550600060096000600d5481526020019081526020016000209050838160000181905550828160010160006101000a81548173ffffffffffffffffffffffffffffffffffffffff021916908373ffffffffffffffffffffffffffffffffffffffff160217905550338160020160006101000a81548173ffffffffffffffffffffffffffffffffffffffff021916908373ffffffffffffffffffffffffffffffffffffffff16021790555060008160020160146101000a81548160ff02191690831515021790555060008160030160007370997970c51812dc3a010c7d01b50e0d17dc79c873ffffffffffffffffffffffffffffffffffffffff1673ffffffffffffffffffffffffffffffffffffffff16815260200190815260200160002060006101000a81548160ff021916908360028111156117e9576117e8614305565b5b021790555060008160030160007315d34aaf54267db7d7c367839aaf71a00a2c6a6573ffffffffffffffffffffffffffffffffffffffff1673ffffffffffffffffffffffffffffffffffffffff16815260200190815260200160002060006101000a81548160ff0219169083600281111561186757611866614305565b5b02179055506000816003016000739965507d1a55bcc2695c58ba16fb37d819b0a4dc73ffffffffffffffffffffffffffffffffffffffff1673ffffffffffffffffffffffffffffffffffffffff16815260200190815260200160002060006101000a81548160ff021916908360028111156118e5576118e4614305565b5b0217905550600081600301600073976ea74026e726554db657fa54763abd0c3a0aa973ffffffffffffffffffffffffffffffffffffffff1673ffffffffffffffffffffffffffffffffffffffff16815260200190815260200160002060006101000a81548160ff0219169083600281111561196357611962614305565b5b021790555083600d547f7c45fccb06763384c6176267c291b1da463b61807a7086a47be55857c092f5c4338660405161199d9291906155b8565b60405180910390a350505050565b7370997970c51812dc3a010c7d01b50e0d17dc79c881565b600081600481106119d357600080fd5b016000915054906101000a900473ffffffffffffffffffffffffffffffffffffffff1681565b600460009054906101000a900473ffffffffffffffffffffffffffffffffffffffff1673ffffffffffffffffffffffffffffffffffffffff163373ffffffffffffffffffffffffffffffffffffffff1614611a89576040517f08c379a0000000000000000000000000000000000000000000000000000000008152600401611a809061562d565b60405180910390fd5b600660008273ffffffffffffffffffffffffffffffffffffffff1673ffffffffffffffffffffffffffffffffffffffff16815260200190815260200160002060010160009054906101000a900460ff16611b18576040517f08c379a0000000000000000000000000000000000000000000000000000000008152600401611b0f90615699565b60405180910390fd5b611b2181613ae2565b8073ffffffffffffffffffffffffffffffffffffffff167f75ccbda69914cfa4f79cf9db870b6dabab15e5d1ca0bea97eadc4b7d3452cef060405160405180910390a250565b600085118015611b795750600e548511155b611bb8576040517f08c379a0000000000000000000000000000000000000000000000000000000008152600401611baf90615137565b60405180910390fd5b6000600a600087815260200190815260200160002090503373ffffffffffffffffffffffffffffffffffffffff168160010160009054906101000a900473ffffffffffffffffffffffffffffffffffffffff1673ffffffffffffffffffffffffffffffffffffffff1614611c61576040517f08c379a0000000000000000000000000000000000000000000000000000000008152600401611c5890615705565b60405180910390fd5b8060040160019054906101000a900460ff16611cb2576040517f08c379a0000000000000000000000000000000000000000000000000000000008152600401611ca990615771565b60405180910390fd5b8060040160009054906101000a900460ff1615611d04576040517f08c379a0000000000000000000000000000000000000000000000000000000008152600401611cfb906157dd565b60405180910390fd5b6203f4808160050154611d1791906157fd565b4210611d58576040517f08c379a0000000000000000000000000000000000000000000000000000000008152600401611d4f9061587d565b60405180910390fd5b8484604051611d689291906158cd565b604051809103902081600201604051611d81919061597e565b604051809103902014611dfd57600b8585604051611da0929190614c92565b908152602001604051809103902060009054906101000a900460ff1615611dfc576040517f08c379a0000000000000000000000000000000000000000000000000000000008152600401611df3906159e1565b60405180910390fd5b5b8484826002019182611e10929190614fa5565b508282826003019182611e24929190614fa5565b5060008160040160016101000a81548160ff0219169083151502179055506000816005018190555060008160060160007370997970c51812dc3a010c7d01b50e0d17dc79c873ffffffffffffffffffffffffffffffffffffffff1673ffffffffffffffffffffffffffffffffffffffff16815260200190815260200160002060006101000a81548160ff02191690836002811115611ec557611ec4614305565b5b021790555060008160060160007315d34aaf54267db7d7c367839aaf71a00a2c6a6573ffffffffffffffffffffffffffffffffffffffff1673ffffffffffffffffffffffffffffffffffffffff16815260200190815260200160002060006101000a81548160ff02191690836002811115611f4357611f42614305565b5b02179055506000816006016000739965507d1a55bcc2695c58ba16fb37d819b0a4dc73ffffffffffffffffffffffffffffffffffffffff1673ffffffffffffffffffffffffffffffffffffffff16815260200190815260200160002060006101000a81548160ff02191690836002811115611fc157611fc0614305565b5b0217905550600081600601600073976ea74026e726554db657fa54763abd0c3a0aa973ffffffffffffffffffffffffffffffffffffffff1673ffffffffffffffffffffffffffffffffffffffff16815260200190815260200160002060006101000a81548160ff0219169083600281111561203f5761203e614305565b5b0217905550857fd43e0d81a2b6ae44078a68d136732184ac55d700ac123e809b5f04b4463b884a60405160405180910390a2505050505050565b6000600560008373ffffffffffffffffffffffffffffffffffffffff1673ffffffffffffffffffffffffffffffffffffffff16815260200190815260200160002060009054906101000a900460ff169050919050565b60056020528060005260406000206000915054906101000a900460ff1681565b600560003373ffffffffffffffffffffffffffffffffffffffff1673ffffffffffffffffffffffffffffffffffffffff16815260200190815260200160002060009054906101000a900460ff161561217c576040517f08c379a000000000000000000000000000000000000000000000000000000000815260040161217390615a4d565b60405180910390fd5b600660003373ffffffffffffffffffffffffffffffffffffffff1673ffffffffffffffffffffffffffffffffffffffff16815260200190815260200160002060010160009054906101000a900460ff161561220c576040517f08c379a000000000000000000000000000000000000000000000000000000000815260040161220390615ab9565b60405180910390fd5b604051806060016040528083838080601f016020809104026020016040519081016040528093929190818152602001838380828437600081840152601f19601f820116905080830192505050505050508152602001600115158152602001600780549050815250600660003373ffffffffffffffffffffffffffffffffffffffff1673ffffffffffffffffffffffffffffffffffffffff16815260200190815260200160002060008201518160000190816122c79190615ad9565b5060208201518160010160006101000a81548160ff021916908315150217905550604082015181600201559050506007339080600181540180825580915050600190039060005260206000200160009091909190916101000a81548173ffffffffffffffffffffffffffffffffffffffff021916908373ffffffffffffffffffffffffffffffffffffffff1602179055503373ffffffffffffffffffffffffffffffffffffffff167f7bdf713e59c361655db2b0a002de6db8dee6def3c30a39e9665698ea5c50f11c83836040516123a0929190615bab565b60405180910390a25050565b600c5481565b6000806000806000851180156123ca5750600d548511155b612409576040517f08c379a00000000000000000000000000000000000000000000000000000000081526004016124009061520f565b60405180910390fd5b60006009600087815260200190815260200160002090508060030160007370997970c51812dc3a010c7d01b50e0d17dc79c873ffffffffffffffffffffffffffffffffffffffff1673ffffffffffffffffffffffffffffffffffffffff16815260200190815260200160002060009054906101000a900460ff168160030160007315d34aaf54267db7d7c367839aaf71a00a2c6a6573ffffffffffffffffffffffffffffffffffffffff1673ffffffffffffffffffffffffffffffffffffffff16815260200190815260200160002060009054906101000a900460ff16826003016000739965507d1a55bcc2695c58ba16fb37d819b0a4dc73ffffffffffffffffffffffffffffffffffffffff1673ffffffffffffffffffffffffffffffffffffffff16815260200190815260200160002060009054906101000a900460ff1683600301600073976ea74026e726554db657fa54763abd0c3a0aa973ffffffffffffffffffffffffffffffffffffffff1673ffffffffffffffffffffffffffffffffffffffff16815260200190815260200160002060009054906101000a900460ff169450945094509450509193509193565b6060600660008373ffffffffffffffffffffffffffffffffffffffff1673ffffffffffffffffffffffffffffffffffffffff16815260200190815260200160002060010160009054906101000a900460ff16156126e557600660008373ffffffffffffffffffffffffffffffffffffffff1673ffffffffffffffffffffffffffffffffffffffff168152602001908152602001600020600001805461266090614dc8565b80601f016020809104026020016040519081016040528092919081815260200182805461268c90614dc8565b80156126d95780601f106126ae576101008083540402835291602001916126d9565b820191906000526020600020905b8154815290600101906020018083116126bc57829003601f168201915b505050505090506126f8565b6040518060200160405280600081525090505b919050565b7315d34aaf54267db7d7c367839aaf71a00a2c6a6581565b600080606080600080600080881180156127315750600e548811155b612770576040517f08c379a000000000000000000000000000000000000000000000000000000000815260040161276790615137565b60405180910390fd5b6000600a60008a8152602001908152602001600020905080600001548160010160009054906101000a900473ffffffffffffffffffffffffffffffffffffffff1682600201836003018460040160009054906101000a900460ff168560040160019054906101000a900460ff1686600501548480546127ee90614dc8565b80601f016020809104026020016040519081016040528092919081815260200182805461281a90614dc8565b80156128675780601f1061283c57610100808354040283529160200191612867565b820191906000526020600020905b81548152906001019060200180831161284a57829003601f168201915b5050505050945083805461287a90614dc8565b80601f01602080910402602001604051908101604052809291908181526020018280546128a690614dc8565b80156128f35780601f106128c8576101008083540402835291602001916128f3565b820191906000526020600020905b8154815290600101906020018083116128d657829003601f168201915b50505050509350975097509750975097509750975050919395979092949650565b600b818051602081018201805184825260208301602085012081835280955050505050506000915054906101000a900460ff1681565b61295333610f85565b612992576040517f08c379a0000000000000000000000000000000000000000000000000000000008152600401612989906151a3565b60405180910390fd5b6000811180156129a45750600d548111155b6129e3576040517f08c379a00000000000000000000000000000000000000000000000000000000081526004016129da9061520f565b60405180910390fd5b60006009600083815260200190815260200160002090508060020160149054906101000a900460ff1615612a4c576040517f08c379a0000000000000000000000000000000000000000000000000000000008152600401612a439061527b565b60405180910390fd5b60006002811115612a6057612a5f614305565b5b8160030160003373ffffffffffffffffffffffffffffffffffffffff1673ffffffffffffffffffffffffffffffffffffffff16815260200190815260200160002060009054906101000a900460ff166002811115612ac157612ac0614305565b5b14612b01576040517f08c379a0000000000000000000000000000000000000000000000000000000008152600401612af8906152e7565b60405180910390fd5b60018160030160003373ffffffffffffffffffffffffffffffffffffffff1673ffffffffffffffffffffffffffffffffffffffff16815260200190815260200160002060006101000a81548160ff02191690836002811115612b6657612b65614305565b5b0217905550817ffd911481fed968526718a75a9df9e9d6d75c5330b72478eb1d20fbf3e69cb17d336001604051612b9e929190615307565b60405180910390a2612baf82613d0c565b15612bbe57612bbd82613f6c565b5b5050565b600460009054906101000a900473ffffffffffffffffffffffffffffffffffffffff1673ffffffffffffffffffffffffffffffffffffffff163373ffffffffffffffffffffffffffffffffffffffff1614612c52576040517f08c379a0000000000000000000000000000000000000000000000000000000008152600401612c499061562d565b60405180910390fd5b600660008273ffffffffffffffffffffffffffffffffffffffff1673ffffffffffffffffffffffffffffffffffffffff16815260200190815260200160002060010160009054906101000a900460ff16612ce1576040517f08c379a0000000000000000000000000000000000000000000000000000000008152600401612cd890615699565b60405180910390fd5b6001600560008373ffffffffffffffffffffffffffffffffffffffff1673ffffffffffffffffffffffffffffffffffffffff16815260200190815260200160002060006101000a81548160ff021916908315150217905550612d4281613ae2565b8073ffffffffffffffffffffffffffffffffffffffff167ffbb0a472171a6eb950c8a87421215268a1b2df816da0a48e920e72ade27cfcf760405160405180910390a250565b739965507d1a55bcc2695c58ba16fb37d819b0a4dc81565b60086020528060005260406000206000915090508060000154908060010160009054906101000a900473ffffffffffffffffffffffffffffffffffffffff1690806002018054612def90614dc8565b80601f0160208091040260200160405190810160405280929190818152602001828054612e1b90614dc8565b8015612e685780601f10612e3d57610100808354040283529160200191612e68565b820191906000526020600020905b815481529060010190602001808311612e4b57829003601f168201915b505050505090806003018054612e7d90614dc8565b80601f0160208091040260200160405190810160405280929190818152602001828054612ea990614dc8565b8015612ef65780601f10612ecb57610100808354040283529160200191612ef6565b820191906000526020600020905b815481529060010190602001808311612ed957829003601f168201915b5050505050908060040154905085565b612f0f33610f85565b612f4e576040517f08c379a0000000000000000000000000000000000000000000000000000000008152600401612f45906151a3565b60405180910390fd5b600081118015612f605750600e548111155b612f9f576040517f08c379a0000000000000000000000000000000000000000000000000000000008152600401612f9690615137565b60405180910390fd5b6000600a600083815260200190815260200160002090508060040160009054906101000a900460ff1615613008576040517f08c379a0000000000000000000000000000000000000000000000000000000008152600401612fff9061537c565b60405180910390fd5b6000600281111561301c5761301b614305565b5b8160060160003373ffffffffffffffffffffffffffffffffffffffff1673ffffffffffffffffffffffffffffffffffffffff16815260200190815260200160002060009054906101000a900460ff16600281111561307d5761307c614305565b5b146130bd576040517f08c379a00000000000000000000000000000000000000000000000000000000081526004016130b4906152e7565b60405180910390fd5b60028160060160003373ffffffffffffffffffffffffffffffffffffffff1673ffffffffffffffffffffffffffffffffffffffff16815260200190815260200160002060006101000a81548160ff0219169083600281111561312257613121614305565b5b02179055508060040160019054906101000a900460ff166131645760018160040160016101000a81548160ff0219169083151502179055504281600501819055505b817fac4e641955a817c5afca1e143ab9c74d5ae6a2a01b8cdd054f16bf82012c8a753360405161319491906144bb565b60405180910390a25050565b6131a8614106565b816000811180156131bb5750600c548111155b6131fa576040517f08c379a00000000000000000000000000000000000000000000000000000000081526004016131f1906153e8565b60405180910390fd5b600073ffffffffffffffffffffffffffffffffffffffff166008600083815260200190815260200160002060010160009054906101000a900473ffffffffffffffffffffffffffffffffffffffff1673ffffffffffffffffffffffffffffffffffffffff160361329f576040517f08c379a000000000000000000000000000000000000000000000000000000000815260040161329690615454565b60405180910390fd5b600860008481526020019081526020016000206040518060a0016040529081600082015481526020016001820160009054906101000a900473ffffffffffffffffffffffffffffffffffffffff1673ffffffffffffffffffffffffffffffffffffffff1673ffffffffffffffffffffffffffffffffffffffff16815260200160028201805461332d90614dc8565b80601f016020809104026020016040519081016040528092919081815260200182805461335990614dc8565b80156133a65780601f1061337b576101008083540402835291602001916133a6565b820191906000526020600020905b81548152906001019060200180831161338957829003601f168201915b505050505081526020016003820180546133bf90614dc8565b80601f01602080910402602001604051908101604052809291908181526020018280546133eb90614dc8565b80156134385780601f1061340d57610100808354040283529160200191613438565b820191906000526020600020905b81548152906001019060200180831161341b57829003601f168201915b50505050508152602001600482015481525050915050919050565b600460009054906101000a900473ffffffffffffffffffffffffffffffffffffffff1681565b600e5481565b6060600780548060200260200160405190810160405280929190818152602001828054801561350357602002820191906000526020600020905b8160009054906101000a900473ffffffffffffffffffffffffffffffffffffffff1673ffffffffffffffffffffffffffffffffffffffff16815260200190600101908083116134b9575b5050505050905090565b600080600a600084815260200190815260200160002090506001600281111561353957613538614305565b5b8160060160007370997970c51812dc3a010c7d01b50e0d17dc79c873ffffffffffffffffffffffffffffffffffffffff1673ffffffffffffffffffffffffffffffffffffffff16815260200190815260200160002060009054906101000a900460ff1660028111156135ae576135ad614305565b5b1480156136415750600160028111156135ca576135c9614305565b5b8160060160007315d34aaf54267db7d7c367839aaf71a00a2c6a6573ffffffffffffffffffffffffffffffffffffffff1673ffffffffffffffffffffffffffffffffffffffff16815260200190815260200160002060009054906101000a900460ff16600281111561363f5761363e614305565b5b145b80156136d357506001600281111561365c5761365b614305565b5b816006016000739965507d1a55bcc2695c58ba16fb37d819b0a4dc73ffffffffffffffffffffffffffffffffffffffff1673ffffffffffffffffffffffffffffffffffffffff16815260200190815260200160002060009054906101000a900460ff1660028111156136d1576136d0614305565b5b145b80156137655750600160028111156136ee576136ed614305565b5b81600601600073976ea74026e726554db657fa54763abd0c3a0aa973ffffffffffffffffffffffffffffffffffffffff1673ffffffffffffffffffffffffffffffffffffffff16815260200190815260200160002060009054906101000a900460ff16600281111561376357613762614305565b5b145b915050919050565b6000600a600083815260200190815260200160002090508060040160009054906101000a900460ff16156137d6576040517f08c379a00000000000000000000000000000000000000000000000000000000081526004016137cd9061537c565b60405180910390fd5b600c60008154809291906137e990614d46565b91905055506040518060a00160405280600c5481526020018260010160009054906101000a900473ffffffffffffffffffffffffffffffffffffffff1673ffffffffffffffffffffffffffffffffffffffff16815260200182600201805461385090614dc8565b80601f016020809104026020016040519081016040528092919081815260200182805461387c90614dc8565b80156138c95780601f1061389e576101008083540402835291602001916138c9565b820191906000526020600020905b8154815290600101906020018083116138ac57829003601f168201915b505050505081526020018260030180546138e290614dc8565b80601f016020809104026020016040519081016040528092919081815260200182805461390e90614dc8565b801561395b5780601f106139305761010080835404028352916020019161395b565b820191906000526020600020905b81548152906001019060200180831161393e57829003601f168201915b505050505081526020014281525060086000600c5481526020019081526020016000206000820151816000015560208201518160010160006101000a81548173ffffffffffffffffffffffffffffffffffffffff021916908373ffffffffffffffffffffffffffffffffffffffff16021790555060408201518160020190816139e49190615ad9565b5060608201518160030190816139fa9190615ad9565b506080820151816004015590505060018160040160006101000a81548160ff0219169083151502179055506001600b82600201604051613a3a9190615c52565b908152602001604051809103902060006101000a81548160ff0219169083151502179055508060010160009054906101000a900473ffffffffffffffffffffffffffffffffffffffff1673ffffffffffffffffffffffffffffffffffffffff16600c547f0c03e39d4c11aaf9930ce7c2af04a11b633e83eb79f83a279d026f663d274819836002018460030142604051613ad693929190615ced565b60405180910390a35050565b6000600660008373ffffffffffffffffffffffffffffffffffffffff1673ffffffffffffffffffffffffffffffffffffffff16815260200190815260200160002090508060010160009054906101000a900460ff16613b415750613d09565b60008160020154905060006001600780549050613b5e9190615d32565b9050808214613c5057600060078281548110613b7d57613b7c615d66565b5b9060005260206000200160009054906101000a900473ffffffffffffffffffffffffffffffffffffffff1690508060078481548110613bbf57613bbe615d66565b5b9060005260206000200160006101000a81548173ffffffffffffffffffffffffffffffffffffffff021916908373ffffffffffffffffffffffffffffffffffffffff16021790555082600660008373ffffffffffffffffffffffffffffffffffffffff1673ffffffffffffffffffffffffffffffffffffffff16815260200190815260200160002060020181905550505b6007805480613c6257613c61615d95565b5b6001900381819060005260206000200160006101000a81549073ffffffffffffffffffffffffffffffffffffffff02191690559055600660008573ffffffffffffffffffffffffffffffffffffffff1673ffffffffffffffffffffffffffffffffffffffff16815260200190815260200160002060008082016000613ce7919061414b565b6001820160006101000a81549060ff0219169055600282016000905550505050505b50565b60008060096000848152602001908152602001600020905060016002811115613d3857613d37614305565b5b8160030160007370997970c51812dc3a010c7d01b50e0d17dc79c873ffffffffffffffffffffffffffffffffffffffff1673ffffffffffffffffffffffffffffffffffffffff16815260200190815260200160002060009054906101000a900460ff166002811115613dad57613dac614305565b5b148015613e40575060016002811115613dc957613dc8614305565b5b8160030160007315d34aaf54267db7d7c367839aaf71a00a2c6a6573ffffffffffffffffffffffffffffffffffffffff1673ffffffffffffffffffffffffffffffffffffffff16815260200190815260200160002060009054906101000a900460ff166002811115613e3e57613e3d614305565b5b145b8015613ed2575060016002811115613e5b57613e5a614305565b5b816003016000739965507d1a55bcc2695c58ba16fb37d819b0a4dc73ffffffffffffffffffffffffffffffffffffffff1673ffffffffffffffffffffffffffffffffffffffff16815260200190815260200160002060009054906101000a900460ff166002811115613ed057613ecf614305565b5b145b8015613f64575060016002811115613eed57613eec614305565b5b81600301600073976ea74026e726554db657fa54763abd0c3a0aa973ffffffffffffffffffffffffffffffffffffffff1673ffffffffffffffffffffffffffffffffffffffff16815260200190815260200160002060009054906101000a900460ff166002811115613f6257613f61614305565b5b145b915050919050565b60006009600083815260200190815260200160002090508060020160149054906101000a900460ff1615613fd5576040517f08c379a0000000000000000000000000000000000000000000000000000000008152600401613fcc9061527b565b60405180910390fd5b60006008600083600001548152602001908152602001600020905060008160010160009054906101000a900473ffffffffffffffffffffffffffffffffffffffff1690508260010160009054906101000a900473ffffffffffffffffffffffffffffffffffffffff168260010160006101000a81548173ffffffffffffffffffffffffffffffffffffffff021916908373ffffffffffffffffffffffffffffffffffffffff16021790555060018360020160146101000a81548160ff0219169083151502179055508260000154847fc143cb67529637015fa38602bce68405354f70fd394f901c5464f298bdc2c1b3838660010160009054906101000a900473ffffffffffffffffffffffffffffffffffffffff166040516140f89291906155b8565b60405180910390a350505050565b6040518060a0016040528060008152602001600073ffffffffffffffffffffffffffffffffffffffff1681526020016060815260200160608152602001600081525090565b50805461415790614dc8565b6000825580601f106141695750614188565b601f016020900490600052602060002090810190614187919061418b565b5b50565b5b808211156141a457600081600090555060010161418c565b5090565b6000604051905090565b600080fd5b600080fd5b600080fd5b600080fd5b600080fd5b60008083601f8401126141e1576141e06141bc565b5b8235905067ffffffffffffffff8111156141fe576141fd6141c1565b5b60208301915083600182028301111561421a576142196141c6565b5b9250929050565b6000806000806040858703121561423b5761423a6141b2565b5b600085013567ffffffffffffffff811115614259576142586141b7565b5b614265878288016141cb565b9450945050602085013567ffffffffffffffff811115614288576142876141b7565b5b614294878288016141cb565b925092505092959194509250565b6000819050919050565b6142b5816142a2565b81146142c057600080fd5b50565b6000813590506142d2816142ac565b92915050565b6000602082840312156142ee576142ed6141b2565b5b60006142fc848285016142c3565b91505092915050565b7f4e487b7100000000000000000000000000000000000000000000000000000000600052602160045260246000fd5b6003811061434557614344614305565b5b50565b600081905061435682614334565b919050565b600061436682614348565b9050919050565b6143768161435b565b82525050565b6000608082019050614391600083018761436d565b61439e602083018661436d565b6143ab604083018561436d565b6143b8606083018461436d565b95945050505050565b6143ca816142a2565b82525050565b60006020820190506143e560008301846143c1565b92915050565b600073ffffffffffffffffffffffffffffffffffffffff82169050919050565b6000614416826143eb565b9050919050565b6144268161440b565b811461443157600080fd5b50565b6000813590506144438161441d565b92915050565b60006020828403121561445f5761445e6141b2565b5b600061446d84828501614434565b91505092915050565b60008115159050919050565b61448b81614476565b82525050565b60006020820190506144a66000830184614482565b92915050565b6144b58161440b565b82525050565b60006020820190506144d060008301846144ac565b92915050565b60006080820190506144eb60008301876143c1565b6144f860208301866144ac565b61450560408301856144ac565b6145126060830184614482565b95945050505050565b60008060408385031215614532576145316141b2565b5b6000614540858286016142c3565b925050602061455185828601614434565b9150509250929050565b600080600080600060608688031215614577576145766141b2565b5b6000614585888289016142c3565b955050602086013567ffffffffffffffff8111156145a6576145a56141b7565b5b6145b2888289016141cb565b9450945050604086013567ffffffffffffffff8111156145d5576145d46141b7565b5b6145e1888289016141cb565b92509250509295509295909350565b60008060208385031215614607576146066141b2565b5b600083013567ffffffffffffffff811115614625576146246141b7565b5b614631858286016141cb565b92509250509250929050565b600081519050919050565b600082825260208201905092915050565b60005b8381101561467757808201518184015260208101905061465c565b60008484015250505050565b6000601f19601f8301169050919050565b600061469f8261463d565b6146a98185614648565b93506146b9818560208601614659565b6146c281614683565b840191505092915050565b600060208201905081810360008301526146e78184614694565b905092915050565b600060e082019050614704600083018a6143c1565b61471160208301896144ac565b81810360408301526147238188614694565b905081810360608301526147378187614694565b90506147466080830186614482565b61475360a0830185614482565b61476060c08301846143c1565b98975050505050505050565b600080fd5b7f4e487b7100000000000000000000000000000000000000000000000000000000600052604160045260246000fd5b6147a982614683565b810181811067ffffffffffffffff821117156147c8576147c7614771565b5b80604052505050565b60006147db6141a8565b90506147e782826147a0565b919050565b600067ffffffffffffffff82111561480757614806614771565b5b61481082614683565b9050602081019050919050565b82818337600083830152505050565b600061483f61483a846147ec565b6147d1565b90508281526020810184848401111561485b5761485a61476c565b5b61486684828561481d565b509392505050565b600082601f830112614883576148826141bc565b5b813561489384826020860161482c565b91505092915050565b6000602082840312156148b2576148b16141b2565b5b600082013567ffffffffffffffff8111156148d0576148cf6141b7565b5b6148dc8482850161486e565b91505092915050565b600060a0820190506148fa60008301886143c1565b61490760208301876144ac565b81810360408301526149198186614694565b9050818103606083015261492d8185614694565b905061493c60808301846143c1565b9695505050505050565b61494f816142a2565b82525050565b61495e8161440b565b82525050565b600082825260208201905092915050565b60006149808261463d565b61498a8185614964565b935061499a818560208601614659565b6149a381614683565b840191505092915050565b600060a0830160008301516149c66000860182614946565b5060208301516149d96020860182614955565b50604083015184820360408601526149f18282614975565b91505060608301518482036060860152614a0b8282614975565b9150506080830151614a206080860182614946565b508091505092915050565b60006020820190508181036000830152614a4581846149ae565b905092915050565b600081519050919050565b600082825260208201905092915050565b6000819050602082019050919050565b6000614a858383614955565b60208301905092915050565b6000602082019050919050565b6000614aa982614a4d565b614ab38185614a58565b9350614abe83614a69565b8060005b83811015614aef578151614ad68882614a79565b9750614ae183614a91565b925050600181019050614ac2565b5085935050505092915050565b60006020820190508181036000830152614b168184614a9e565b905092915050565b7f4e6f7420617070726f76656420627920636f6d6d697373696f6e657200000000600082015250565b6000614b54601c83614648565b9150614b5f82614b1e565b602082019050919050565b60006020820190508181036000830152614b8381614b47565b9050919050565b7f4c6f636174696f6e2063616e6e6f7420626520656d7074790000000000000000600082015250565b6000614bc0601883614648565b9150614bcb82614b8a565b602082019050919050565b60006020820190508181036000830152614bef81614bb3565b9050919050565b7f4950465320686173682063616e6e6f7420626520656d70747900000000000000600082015250565b6000614c2c601983614648565b9150614c3782614bf6565b602082019050919050565b60006020820190508181036000830152614c5b81614c1f565b9050919050565b600081905092915050565b6000614c798385614c62565b9350614c8683858461481d565b82840190509392505050565b6000614c9f828486614c6d565b91508190509392505050565b7f4c6f636174696f6e20616c726561647920726567697374657265640000000000600082015250565b6000614ce1601b83614648565b9150614cec82614cab565b602082019050919050565b60006020820190508181036000830152614d1081614cd4565b9050919050565b7f4e487b7100000000000000000000000000000000000000000000000000000000600052601160045260246000fd5b6000614d51826142a2565b91507fffffffffffffffffffffffffffffffffffffffffffffffffffffffffffffffff8203614d8357614d82614d17565b5b600182019050919050565b600082905092915050565b7f4e487b7100000000000000000000000000000000000000000000000000000000600052602260045260246000fd5b60006002820490506001821680614de057607f821691505b602082108103614df357614df2614d99565b5b50919050565b60008190508160005260206000209050919050565b60006020601f8301049050919050565b600082821b905092915050565b600060088302614e5b7fffffffffffffffffffffffffffffffffffffffffffffffffffffffffffffffff82614e1e565b614e658683614e1e565b95508019841693508086168417925050509392505050565b6000819050919050565b6000614ea2614e9d614e98846142a2565b614e7d565b6142a2565b9050919050565b6000819050919050565b614ebc83614e87565b614ed0614ec882614ea9565b848454614e2b565b825550505050565b600090565b614ee5614ed8565b614ef0818484614eb3565b505050565b5b81811015614f1457614f09600082614edd565b600181019050614ef6565b5050565b601f821115614f5957614f2a81614df9565b614f3384614e0e565b81016020851015614f42578190505b614f56614f4e85614e0e565b830182614ef5565b50505b505050565b600082821c905092915050565b6000614f7c60001984600802614f5e565b1980831691505092915050565b6000614f958383614f6b565b9150826002028217905092915050565b614faf8383614d8e565b67ffffffffffffffff811115614fc857614fc7614771565b5b614fd28254614dc8565b614fdd828285614f18565b6000601f83116001811461500c5760008415614ffa578287013590505b6150048582614f89565b86555061506c565b601f19841661501a86614df9565b60005b828110156150425784890135825560018201915060208501945060208101905061501d565b8683101561505f578489013561505b601f891682614f6b565b8355505b6001600288020188555050505b50505050505050565b60006150818385614648565b935061508e83858461481d565b61509783614683565b840190509392505050565b60006060820190506150b760008301886144ac565b81810360208301526150ca818688615075565b905081810360408301526150df818486615075565b90509695505050505050565b7f496e76616c696420726567697374726174696f6e204944000000000000000000600082015250565b6000615121601783614648565b915061512c826150eb565b602082019050919050565b6000602082019050818103600083015261515081615114565b9050919050565b7f556e617574686f72697a65643a204f6e6c7920617574686f7269746965730000600082015250565b600061518d601e83614648565b915061519882615157565b602082019050919050565b600060208201905081810360008301526151bc81615180565b9050919050565b7f496e76616c6964207472616e73616374696f6e20494400000000000000000000600082015250565b60006151f9601683614648565b9150615204826151c3565b602082019050919050565b60006020820190508181036000830152615228816151ec565b9050919050565b7f5472616e73616374696f6e206578656375746564000000000000000000000000600082015250565b6000615265601483614648565b91506152708261522f565b602082019050919050565b6000602082019050818103600083015261529481615258565b9050919050565b7f416c726561647920766f74656400000000000000000000000000000000000000600082015250565b60006152d1600d83614648565b91506152dc8261529b565b602082019050919050565b60006020820190508181036000830152615300816152c4565b9050919050565b600060408201905061531c60008301856144ac565b615329602083018461436d565b9392505050565b7f526567697374726174696f6e2065786563757465640000000000000000000000600082015250565b6000615366601583614648565b915061537182615330565b602082019050919050565b6000602082019050818103600083015261539581615359565b9050919050565b7f4c616e6420646f6573206e6f7420657869737400000000000000000000000000600082015250565b60006153d2601383614648565b91506153dd8261539c565b602082019050919050565b60006020820190508181036000830152615401816153c5565b9050919050565b7f4c616e6420686173206265656e2064656c657465640000000000000000000000600082015250565b600061543e601583614648565b915061544982615408565b602082019050919050565b6000602082019050818103600083015261546d81615431565b9050919050565b7f4f6e6c79206f776e657200000000000000000000000000000000000000000000600082015250565b60006154aa600a83614648565b91506154b582615474565b602082019050919050565b600060208201905081810360008301526154d98161549d565b9050919050565b7f496e76616c696420726563697069656e74000000000000000000000000000000600082015250565b6000615516601183614648565b9150615521826154e0565b602082019050919050565b6000602082019050818103600083015261554581615509565b9050919050565b7f43616e6e6f74207472616e7366657220746f20796f757273656c660000000000600082015250565b6000615582601b83614648565b915061558d8261554c565b602082019050919050565b600060208201905081810360008301526155b181615575565b9050919050565b60006040820190506155cd60008301856144ac565b6155da60208301846144ac565b9392505050565b7f4f6e6c7920636f6d6d697373696f6e6572000000000000000000000000000000600082015250565b6000615617601183614648565b9150615622826155e1565b602082019050919050565b600060208201905081810360008301526156468161560a565b9050919050565b7f4e6f207265717565737420666f756e6400000000000000000000000000000000600082015250565b6000615683601083614648565b915061568e8261564d565b602082019050919050565b600060208201905081810360008301526156b281615676565b9050919050565b7f4f6e6c79206170706c6963616e74000000000000000000000000000000000000600082015250565b60006156ef600e83614648565b91506156fa826156b9565b602082019050919050565b6000602082019050818103600083015261571e816156e2565b9050919050565b7f4e6f742072656a65637465640000000000000000000000000000000000000000600082015250565b600061575b600c83614648565b915061576682615725565b602082019050919050565b6000602082019050818103600083015261578a8161574e565b9050919050565b7f4578656375746564000000000000000000000000000000000000000000000000600082015250565b60006157c7600883614648565b91506157d282615791565b602082019050919050565b600060208201905081810360008301526157f6816157ba565b9050919050565b6000615808826142a2565b9150615813836142a2565b925082820190508082111561582b5761582a614d17565b5b92915050565b7f52657375626d697373696f6e2065787069726564000000000000000000000000600082015250565b6000615867601483614648565b915061587282615831565b602082019050919050565b600060208201905081810360008301526158968161585a565b9050919050565b600081905092915050565b60006158b4838561589d565b93506158c183858461481d565b82840190509392505050565b60006158da8284866158a8565b91508190509392505050565b60008190508160005260206000209050919050565b6000815461590881614dc8565b615912818661589d565b9450600182166000811461592d576001811461594257615975565b60ff1983168652811515820286019350615975565b61594b856158e6565b60005b8381101561596d5781548189015260018201915060208101905061594e565b838801955050505b50505092915050565b600061598a82846158fb565b915081905092915050565b7f4e6577206c6f636174696f6e2074616b656e0000000000000000000000000000600082015250565b60006159cb601283614648565b91506159d682615995565b602082019050919050565b600060208201905081810360008301526159fa816159be565b9050919050565b7f416c726561647920617070726f76656400000000000000000000000000000000600082015250565b6000615a37601083614648565b9150615a4282615a01565b602082019050919050565b60006020820190508181036000830152615a6681615a2a565b9050919050565b7f416c726561647920726571756573746564000000000000000000000000000000600082015250565b6000615aa3601183614648565b9150615aae82615a6d565b602082019050919050565b60006020820190508181036000830152615ad281615a96565b9050919050565b615ae28261463d565b67ffffffffffffffff811115615afb57615afa614771565b5b615b058254614dc8565b615b10828285614f18565b600060209050601f831160018114615b435760008415615b31578287015190505b615b3b8582614f89565b865550615ba3565b601f198416615b5186614df9565b60005b82811015615b7957848901518255600182019150602085019450602081019050615b54565b86831015615b965784890151615b92601f891682614f6b565b8355505b6001600288020188555050505b505050505050565b60006020820190508181036000830152615bc6818486615075565b90509392505050565b60008154615bdc81614dc8565b615be68186614c62565b94506001821660008114615c015760018114615c1657615c49565b60ff1983168652811515820286019350615c49565b615c1f85614df9565b60005b83811015615c4157815481890152600182019150602081019050615c22565b838801955050505b50505092915050565b6000615c5e8284615bcf565b915081905092915050565b60008154615c7681614dc8565b615c808186614648565b94506001821660008114615c9b5760018114615cb157615ce4565b60ff198316865281151560200286019350615ce4565b615cba85614df9565b60005b83811015615cdc57815481890152600182019150602081019050615cbd565b808801955050505b50505092915050565b60006060820190508181036000830152615d078186615c69565b90508181036020830152615d1b8185615c69565b9050615d2a60408301846143c1565b949350505050565b6000615d3d826142a2565b9150615d48836142a2565b9250828203905081811115615d6057615d5f614d17565b5b92915050565b7f4e487b7100000000000000000000000000000000000000000000000000000000600052603260045260246000fd5b7f4e487b7100000000000000000000000000000000000000000000000000000000600052603160045260246000fdfea264697066735822122013390965ed40d4afdca7b04fc134433b413e501a1a10c8461c6d13dd4d0d08e764736f6c634300081c0033",
  "linkReferences": {},
  "deployedLinkReferences": {}
}