{
  "_format": "hh-sol-artifact-1",
  "contractName": "LandRegistry",
  "sourceName": "contracts/LandRegistry.sol",
  "abi": [
    {
      "anonymous": false,
      "inputs": [
        {
          "indexed": false,
          "internalType": "uint256",
          "name": "id",
          "type": "uint256"
        },
        {
          "indexed": false,
          "internalType": "address",
          "name": "owner",
          "type": "address"
        },
        {
          "indexed": false,
          "internalType": "string",
          "name": "location",
          "type": "string"
        },
        {
          "indexed": false,
          "internalType": "string",
          "name": "ipfsHash",
          "type": "string"
        },
        {
          "indexed": false,
          "internalType": "uint256",
          "name": "timestamp",
          "type": "uint256"
        }
      ],
      "name": "LandRegistered",
      "type": "event"
    },
    {
      "anonymous": false,
      "inputs": [
        {
          "indexed": false,
          "internalType": "uint256",
          "name": "registrationId",
          "type": "uint256"
        },
        {
          "indexed": false,
          "internalType": "address",
          "name": "approver",
          "type": "address"
        }
      ],
      "name": "RegistrationApproved",
      "type": "event"
    },
    {
      "anonymous": false,
      "inputs": [
        {
          "indexed": false,
          "internalType": "uint256",
          "name": "registrationId",
          "type": "uint256"
        },
        {
          "indexed": false,
          "internalType": "address",
          "name": "prospectiveOwner",
          "type": "address"
        },
        {
          "indexed": false,
          "internalType": "string",
          "name": "location",
          "type": "string"
        },
        {
          "indexed": false,
          "internalType": "string",
          "name": "ipfsHash",
          "type": "string"
        }
      ],
      "name": "RegistrationInitiated",
      "type": "event"
    },
    {
      "anonymous": false,
      "inputs": [
        {
          "indexed": false,
          "internalType": "uint256",
          "name": "registrationId",
          "type": "uint256"
        },
        {
          "indexed": false,
          "internalType": "address",
          "name": "approver",
          "type": "address"
        }
      ],
      "name": "RegistrationRejected",
      "type": "event"
    },
    {
      "anonymous": false,
      "inputs": [
        {
          "indexed": true,
          "internalType": "address",
          "name": "user",
          "type": "address"
        }
      ],
      "name": "UserVerified",
      "type": "event"
    },
    {
      "anonymous": false,
      "inputs": [
        {
          "indexed": true,
          "internalType": "address",
          "name": "user",
          "type": "address"
        },
        {
          "indexed": true,
          "internalType": "address",
          "name": "approver",
          "type": "address"
        }
      ],
      "name": "VerificationApproved",
      "type": "event"
    },
    {
      "anonymous": false,
      "inputs": [
        {
          "indexed": true,
          "internalType": "address",
          "name": "user",
          "type": "address"
        },
        {
          "indexed": true,
          "internalType": "address",
          "name": "approver",
          "type": "address"
        }
      ],
      "name": "VerificationRejected",
      "type": "event"
    },
    {
      "anonymous": false,
      "inputs": [
        {
          "indexed": true,
          "internalType": "address",
          "name": "user",
          "type": "address"
        },
        {
          "indexed": false,
          "internalType": "string",
          "name": "documentIpfsHash",
          "type": "string"
        }
      ],
      "name": "VerificationSubmitted",
      "type": "event"
    },
    {
      "inputs": [],
      "name": "COMMISSIONER_OF_LAND",
      "outputs": [
        {
          "internalType": "address",
          "name": "",
          "type": "address"
        }
      ],
      "stateMutability": "view",
      "type": "function"
    },
    {
      "inputs": [],
      "name": "KITWE_CITY_COUNCIL",
      "outputs": [
        {
          "internalType": "address",
          "name": "",
          "type": "address"
        }
      ],
      "stateMutability": "view",
      "type": "function"
    },
    {
      "inputs": [],
      "name": "LANDS_DEEDS_REGISTRY",
      "outputs": [
        {
          "internalType": "address",
          "name": "",
          "type": "address"
        }
      ],
      "stateMutability": "view",
      "type": "function"
    },
    {
      "inputs": [],
      "name": "TREASURY",
      "outputs": [
        {
          "internalType": "address",
          "name": "",
          "type": "address"
        }
      ],
      "stateMutability": "view",
      "type": "function"
    },
    {
      "inputs": [
        {
          "internalType": "uint256",
          "name": "_registrationId",
          "type": "uint256"
        }
      ],
      "name": "approveRegistration",
      "outputs": [],
      "stateMutability": "nonpayable",
      "type": "function"
    },
    {
      "inputs": [
        {
          "internalType": "address",
          "name": "_userAddress",
          "type": "address"
        }
      ],
      "name": "approveVerification",
      "outputs": [],
      "stateMutability": "nonpayable",
      "type": "function"
    },
    {
      "inputs": [],
      "name": "getPendingVerificationAddresses",
      "outputs": [
        {
          "internalType": "address[]",
          "name": "",
          "type": "address[]"
        }
      ],
      "stateMutability": "view",
      "type": "function"
    },
    {
      "inputs": [
        {
          "internalType": "string",
          "name": "_location",
          "type": "string"
        },
        {
          "internalType": "string",
          "name": "_ipfsHash",
          "type": "string"
        }
      ],
      "name": "initiateRegistration",
      "outputs": [],
      "stateMutability": "nonpayable",
      "type": "function"
    },
    {
      "inputs": [
        {
          "internalType": "string",
          "name": "",
          "type": "string"
        }
      ],
      "name": "ipfsHashExists",
      "outputs": [
        {
          "internalType": "bool",
          "name": "",
          "type": "bool"
        }
      ],
      "stateMutability": "view",
      "type": "function"
    },
    {
      "inputs": [
        {
          "internalType": "address",
          "name": "_address",
          "type": "address"
        }
      ],
      "name": "isAuthority",
      "outputs": [
        {
          "internalType": "bool",
          "name": "",
          "type": "bool"
        }
      ],
      "stateMutability": "pure",
      "type": "function"
    },
    {
      "inputs": [],
      "name": "landCounter",
      "outputs": [
        {
          "internalType": "uint256",
          "name": "",
          "type": "uint256"
        }
      ],
      "stateMutability": "view",
      "type": "function"
    },
    {
      "inputs": [
        {
          "internalType": "uint256",
          "name": "",
          "type": "uint256"
        }
      ],
      "name": "lands",
      "outputs": [
        {
          "internalType": "uint256",
          "name": "id",
          "type": "uint256"
        },
        {
          "internalType": "address",
          "name": "owner",
          "type": "address"
        },
        {
          "internalType": "string",
          "name": "location",
          "type": "string"
        },
        {
          "internalType": "string",
          "name": "ipfsHash",
          "type": "string"
        },
        {
          "internalType": "uint256",
          "name": "timestamp",
          "type": "uint256"
        }
      ],
      "stateMutability": "view",
      "type": "function"
    },
    {
      "inputs": [
        {
          "internalType": "string",
          "name": "",
          "type": "string"
        }
      ],
      "name": "locationExists",
      "outputs": [
        {
          "internalType": "bool",
          "name": "",
          "type": "bool"
        }
      ],
      "stateMutability": "view",
      "type": "function"
    },
    {
      "inputs": [
        {
          "internalType": "uint256",
          "name": "",
          "type": "uint256"
        }
      ],
      "name": "pendingVerificationAddresses",
      "outputs": [
        {
          "internalType": "address",
          "name": "",
          "type": "address"
        }
      ],
      "stateMutability": "view",
      "type": "function"
    },
    {
      "inputs": [],
      "name": "registrationCounter",
      "outputs": [
        {
          "internalType": "uint256",
          "name": "",
          "type": "uint256"
        }
      ],
      "stateMutability": "view",
      "type": "function"
    },
    {
      "inputs": [
        {
          "internalType": "uint256",
          "name": "",
          "type": "uint256"
        }
      ],
      "name": "registrations",
      "outputs": [
        {
          "internalType": "uint256",
          "name": "id",
          "type": "uint256"
        },
        {
          "internalType": "address",
          "name": "prospectiveOwner",
          "type": "address"
        },
        {
          "internalType": "string",
          "name": "location",
          "type": "string"
        },
        {
          "internalType": "string",
          "name": "ipfsHash",
          "type": "string"
        },
        {
          "internalType": "bool",
          "name": "executed",
          "type": "bool"
        },
        {
          "internalType": "bool",
          "name": "isRejected",
          "type": "bool"
        },
        {
          "internalType": "uint256",
          "name": "rejectionTimestamp",
          "type": "uint256"
        }
      ],
      "stateMutability": "view",
      "type": "function"
    },
    {
      "inputs": [
        {
          "internalType": "uint256",
          "name": "_registrationId",
          "type": "uint256"
        }
      ],
      "name": "rejectRegistration",
      "outputs": [],
      "stateMutability": "nonpayable",
      "type": "function"
    },
    {
      "inputs": [
        {
          "internalType": "address",
          "name": "userAddress",
          "type": "address"
        }
      ],
      "name": "rejectVerification",
      "outputs": [],
      "stateMutability": "nonpayable",
      "type": "function"
    },
    {
      "inputs": [
        {
          "internalType": "string",
          "name": "_documentIpfsHash",
          "type": "string"
        }
      ],
      "name": "submitVerification",
      "outputs": [],
      "stateMutability": "nonpayable",
      "type": "function"
    },
    {
      "inputs": [
        {
          "internalType": "address",
          "name": "",
          "type": "address"
        }
      ],
      "name": "verifications",
      "outputs": [
        {
          "internalType": "string",
          "name": "documentIpfsHash",
          "type": "string"
        },
        {
          "internalType": "enum LandRegistry.UserStatus",
          "name": "status",
          "type": "uint8"
        }
      ],
      "stateMutability": "view",
      "type": "function"
    }
  ],
  "bytecode": "0x608060405234801561001057600080fd5b50611dbe806100206000396000f3fe608060405234801561001057600080fd5b50600436106100fc5760003560e01c806301c8b687146101015780630362e14d14610131578063080c98da146101465780631a2110e6146101675780632330f247146101a557806323fafbe8146101b85780632d2c5565146101cb5780633a3952d0146101e65780633f7fb53b146102015780639e29ce1814610214578063b4f3fcf61461022b578063c4eef4a214610246578063c80757c714610259578063dd3bb49d14610287578063e261f1e5146102a2578063e6097b50146102c6578063e9b891a2146102d9578063eddbc8e7146102ec578063f2b75ce114610301578063f4ddb5be1461030a575b600080fd5b61011461010f36600461162a565b610330565b6040516001600160a01b0390911681526020015b60405180910390f35b61014461013f3660046116e5565b61035a565b005b610159610154366004611748565b61062b565b6040516101289291906117d7565b610195610175366004611817565b805160208183018101805160058252928201919093012091525460ff1681565b6040519015158152602001610128565b6101956101b3366004611748565b6106d2565b6101446101c636600461162a565b61076f565b61011473976ea74026e726554db657fa54763abd0c3a0aa981565b6101147370997970c51812dc3a010c7d01b50e0d17dc79c881565b61014461020f366004611748565b61089a565b61021d60065481565b604051908152602001610128565b6101147315d34aaf54267db7d7c367839aaf71a00a2c6a6581565b610144610254366004611748565b610ab8565b610195610267366004611817565b805160208183018101805160048252928201919093012091525460ff1681565b610114739965507d1a55bcc2695c58ba16fb37d819b0a4dc81565b6102b56102b036600461162a565b610b75565b604051610128959493929190611853565b6101446102d4366004611817565b610cbe565b6101446102e736600461162a565b610ece565b6102f4610f7b565b60405161012891906118a2565b61021d60075481565b61031d61031836600461162a565b610fdd565b60405161012897969594939291906118ef565b6003818154811061034057600080fd5b6000918252602090912001546001600160a01b0316905081565b60023360009081526002602052604090206001015460ff166003811115610383576103836117c1565b14806103935750610393336106d2565b6104025760405162461bcd60e51b815260206004820152603560248201527f416374696f6e207265717569726573207573657220766572696669636174696f6044820152746e206f7220617574686f726974792073746174757360581b60648201526084015b60405180910390fd5b600082511161044e5760405162461bcd60e51b81526020600482015260186024820152774c6f636174696f6e2063616e6e6f7420626520656d70747960401b60448201526064016103f9565b600081511161049b5760405162461bcd60e51b81526020600482015260196024820152784950465320686173682063616e6e6f7420626520656d70747960381b60448201526064016103f9565b6004826040516104ab919061194b565b9081526040519081900360200190205460ff16156105095760405162461bcd60e51b815260206004820152601b60248201527a131bd8d85d1a5bdb88185b1c9958591e481c9959da5cdd195c9959602a1b60448201526064016103f9565b600581604051610519919061194b565b9081526040519081900360200190205460ff161561058b5760405162461bcd60e51b815260206004820152602960248201527f4465656420646f63756d656e742068617320616c7265616479206265656e20726044820152681959da5cdd195c995960ba1b60648201526084016103f9565b6007805490600061059b8361197d565b90915550506007546000818152600160208190526040909120918255810180546001600160a01b03191633179055600281016105d78482611a1f565b50600381016105e68382611a1f565b507f95ff42ead55431b21c737c50609187c4093c9b71bcd204f2d0db50a78caf132c60075433858560405161061e9493929190611ade565b60405180910390a1505050565b60026020526000908152604090208054819061064690611996565b80601f016020809104026020016040519081016040528092919081815260200182805461067290611996565b80156106bf5780601f10610694576101008083540402835291602001916106bf565b820191906000526020600020905b8154815290600101906020018083116106a257829003601f168201915b5050506001909301549192505060ff1682565b60006001600160a01b0382167370997970c51812dc3a010c7d01b50e0d17dc79c8148061071b57506001600160a01b0382167315d34aaf54267db7d7c367839aaf71a00a2c6a65145b8061074257506001600160a01b038216739965507d1a55bcc2695c58ba16fb37d819b0a4dc145b8061076957506001600160a01b03821673976ea74026e726554db657fa54763abd0c3a0aa9145b92915050565b610778336106d2565b6107945760405162461bcd60e51b81526004016103f990611b25565b6000818152600160205260409020600481015460ff16156107c75760405162461bcd60e51b81526004016103f990611b81565b33600090815260068201602052604081205460ff1660028111156107ed576107ed6117c1565b1461082a5760405162461bcd60e51b815260206004820152600d60248201526c105b1c9958591e481d9bdd1959609a1b60448201526064016103f9565b33600081815260068301602052604090819020805460ff19166001179055517f5bb7b658dde929334c584f284e7cdfd4d5df4b5b995d90ba9aadaaaa5fdf0abb9161087791859190611bab565b60405180910390a16108888261113a565b15610896576108968261125c565b5050565b6108a3336106d2565b6108bf5760405162461bcd60e51b81526004016103f990611b25565b6001600160a01b038116600090815260026020526040902060018082015460ff1660038111156108f1576108f16117c1565b1461090e5760405162461bcd60e51b81526004016103f990611bc2565b336000818152600283016020526040808220805460ff19166001179055516001600160a01b038516917f61fde3e0fc0d3d3a622e35d2009c0a7566e87458cd0754a89107e8c99d897f3991a361096382611504565b156108965760018101805460ff1916600217905560005b600354811015610a7f57826001600160a01b0316600382815481106109a1576109a1611c07565b6000918252602090912001546001600160a01b031603610a6d57600380546109cb90600190611c1d565b815481106109db576109db611c07565b600091825260209091200154600380546001600160a01b039092169183908110610a0757610a07611c07565b9060005260206000200160006101000a8154816001600160a01b0302191690836001600160a01b031602179055506003805480610a4657610a46611c30565b600082815260209020810160001990810180546001600160a01b0319169055019055610a7f565b80610a778161197d565b91505061097a565b506040516001600160a01b038316907fa6625d2d26e786e2f473111bea4b2fcdbbf1863d883a2359989ce3a103d2972a90600090a25050565b610ac1336106d2565b610add5760405162461bcd60e51b81526004016103f990611b25565b6001600160a01b038116600090815260026020526040902060018082015460ff166003811115610b0f57610b0f6117c1565b14610b2c5760405162461bcd60e51b81526004016103f990611bc2565b60018101805460ff1916600317905560405133906001600160a01b038416907fbf2e9db87505e49435486188384b820d99d1bb7d2ca3e9cbc19f4c680a8bfeed90600090a35050565b60006020819052908152604090208054600182015460028301805492936001600160a01b0390921692610ba790611996565b80601f0160208091040260200160405190810160405280929190818152602001828054610bd390611996565b8015610c205780601f10610bf557610100808354040283529160200191610c20565b820191906000526020600020905b815481529060010190602001808311610c0357829003601f168201915b505050505090806003018054610c3590611996565b80601f0160208091040260200160405190810160405280929190818152602001828054610c6190611996565b8015610cae5780601f10610c8357610100808354040283529160200191610cae565b820191906000526020600020905b815481529060010190602001808311610c9157829003601f168201915b5050505050908060040154905085565b6000815111610d1a5760405162461bcd60e51b815260206004820152602260248201527f446f63756d656e74204950465320686173682063616e6e6f7420626520656d70604482015261747960f01b60648201526084016103f9565b33600090815260026020526040812090600182015460ff166003811115610d4357610d436117c1565b1480610d6757506003600182015460ff166003811115610d6557610d656117c1565b145b610dc35760405162461bcd60e51b815260206004820152602760248201527f43616e6e6f74207375626d697420766572696669636174696f6e20617420746860448201526669732074696d6560c81b60648201526084016103f9565b80610dce8382611a1f565b506001818101805460ff191690911790556000805b600354811015610e3f57336001600160a01b031660038281548110610e0a57610e0a611c07565b6000918252602090912001546001600160a01b031603610e2d5760019150610e3f565b80610e378161197d565b915050610de3565b5080610e8857600380546001810182556000919091527fc2575a0e9e593c00f959f8c92f12db2869c3395a3b0502d05e2516446f71f85b0180546001600160a01b031916331790555b336001600160a01b03167fb1673509a92b6f413efa018b78d8326e7d38ae0183fd2527e57d55681f4bc30584604051610ec19190611c46565b60405180910390a2505050565b610ed7336106d2565b610ef35760405162461bcd60e51b81526004016103f990611b25565b6000818152600160205260409020600481015460ff1615610f265760405162461bcd60e51b81526004016103f990611b81565b60048101805461ff0019166101001790554260058201556040517fac4e641955a817c5afca1e143ab9c74d5ae6a2a01b8cdd054f16bf82012c8a7590610f6f9084903390611bab565b60405180910390a15050565b60606003805480602002602001604051908101604052809291908181526020018280548015610fd357602002820191906000526020600020905b81546001600160a01b03168152600190910190602001808311610fb5575b5050505050905090565b60016020819052600091825260409091208054918101546002820180546001600160a01b03909216929161101090611996565b80601f016020809104026020016040519081016040528092919081815260200182805461103c90611996565b80156110895780601f1061105e57610100808354040283529160200191611089565b820191906000526020600020905b81548152906001019060200180831161106c57829003601f168201915b50505050509080600301805461109e90611996565b80601f01602080910402602001604051908101604052809291908181526020018280546110ca90611996565b80156111175780601f106110ec57610100808354040283529160200191611117565b820191906000526020600020905b8154815290600101906020018083116110fa57829003601f168201915b505050506004830154600590930154919260ff8082169361010090920416915087565b60008181526001602081905260408220907370997970c51812dc3a010c7d01b50e0d17dc79c8600090815260068301602052604090205460ff166002811115611185576111856117c1565b1480156111cb575060017315d34aaf54267db7d7c367839aaf71a00a2c6a65600090815260068301602052604090205460ff1660028111156111c9576111c96117c1565b145b801561121057506001739965507d1a55bcc2695c58ba16fb37d819b0a4dc600090815260068301602052604090205460ff16600281111561120e5761120e6117c1565b145b80156112555750600173976ea74026e726554db657fa54763abd0c3a0aa9600090815260068301602052604090205460ff166002811115611253576112536117c1565b145b9392505050565b6000818152600160208190526040822060048101805460ff191690921790915560068054919261128b8361197d565b90915550506040805160a081018252600654815260018301546001600160a01b0316602082015260028301805491928301916112c690611996565b80601f01602080910402602001604051908101604052809291908181526020018280546112f290611996565b801561133f5780601f106113145761010080835404028352916020019161133f565b820191906000526020600020905b81548152906001019060200180831161132257829003601f168201915b5050505050815260200182600301805461135890611996565b80601f016020809104026020016040519081016040528092919081815260200182805461138490611996565b80156113d15780601f106113a6576101008083540402835291602001916113d1565b820191906000526020600020905b8154815290600101906020018083116113b457829003601f168201915b505050918352505042602091820152600654600090815280825260409081902083518155918301516001830180546001600160a01b0319166001600160a01b03909216919091179055820151600282019061142c9082611a1f565b50606082015160038201906114419082611a1f565b506080820151816004015590505060016004826002016040516114649190611c59565b908152604051908190036020018120805492151560ff1990931692909217909155600190600590611499906003850190611c59565b908152604051908190036020018120805492151560ff199093169290921790915560065460018301547f0c03e39d4c11aaf9930ce7c2af04a11b633e83eb79f83a279d026f663d27481992610f6f92916001600160a01b031690600286019060038701904290611d4c565b6001600160a01b038116600090815260026020526040812060017370997970c51812dc3a010c7d01b50e0d17dc79c86000908152600280840160205260409091205460ff1690811115611559576115596117c1565b1480156115a0575060017315d34aaf54267db7d7c367839aaf71a00a2c6a656000908152600280840160205260409091205460ff169081111561159e5761159e6117c1565b145b80156115e657506001739965507d1a55bcc2695c58ba16fb37d819b0a4dc6000908152600280840160205260409091205460ff16908111156115e4576115e46117c1565b145b80156112555750600173976ea74026e726554db657fa54763abd0c3a0aa96000908152600280840160205260409091205460ff1690811115611253576112536117c1565b60006020828403121561163c57600080fd5b5035919050565b634e487b7160e01b600052604160045260246000fd5b600082601f83011261166a57600080fd5b81356001600160401b038082111561168457611684611643565b604051601f8301601f19908116603f011681019082821181831017156116ac576116ac611643565b816040528381528660208588010111156116c557600080fd5b836020870160208301376000602085830101528094505050505092915050565b600080604083850312156116f857600080fd5b82356001600160401b038082111561170f57600080fd5b61171b86838701611659565b9350602085013591508082111561173157600080fd5b5061173e85828601611659565b9150509250929050565b60006020828403121561175a57600080fd5b81356001600160a01b038116811461125557600080fd5b60005b8381101561178c578181015183820152602001611774565b50506000910152565b600081518084526117ad816020860160208601611771565b601f01601f19169290920160200192915050565b634e487b7160e01b600052602160045260246000fd5b6040815260006117ea6040830185611795565b90506004831061180a57634e487b7160e01b600052602160045260246000fd5b8260208301529392505050565b60006020828403121561182957600080fd5b81356001600160401b0381111561183f57600080fd5b61184b84828501611659565b949350505050565b8581526001600160a01b038516602082015260a06040820181905260009061187d90830186611795565b828103606084015261188f8186611795565b9150508260808301529695505050505050565b6020808252825182820181905260009190848201906040850190845b818110156118e35783516001600160a01b0316835292840192918401916001016118be565b50909695505050505050565b8781526001600160a01b038716602082015260e06040820181905260009061191990830188611795565b828103606084015261192b8188611795565b9515156080840152505091151560a083015260c090910152949350505050565b6000825161195d818460208701611771565b9190910192915050565b634e487b7160e01b600052601160045260246000fd5b60006001820161198f5761198f611967565b5060010190565b600181811c908216806119aa57607f821691505b6020821081036119ca57634e487b7160e01b600052602260045260246000fd5b50919050565b601f821115611a1a57600081815260208120601f850160051c810160208610156119f75750805b601f850160051c820191505b81811015611a1657828155600101611a03565b5050505b505050565b81516001600160401b03811115611a3857611a38611643565b611a4c81611a468454611996565b846119d0565b602080601f831160018114611a815760008415611a695750858301515b600019600386901b1c1916600185901b178555611a16565b600085815260208120601f198616915b82811015611ab057888601518255948401946001909101908401611a91565b5085821015611ace5787850151600019600388901b60f8161c191681555b5050505050600190811b01905550565b8481526001600160a01b0384166020820152608060408201819052600090611b0890830185611795565b8281036060840152611b1a8185611795565b979650505050505050565b6020808252603c908201527f556e617574686f72697a65643a204f6e6c7920617070726f76656420656e746960408201527b3a34b2b99031b0b7103832b93337b936903a3434b99030b1ba34b7b760211b606082015260800190565b60208082526010908201526f105b1c9958591e48195e1958dd5d195960821b604082015260600190565b9182526001600160a01b0316602082015260400190565b60208082526025908201527f4e6f2070656e64696e6720766572696669636174696f6e20666f722074686973604082015264103ab9b2b960d91b606082015260800190565b634e487b7160e01b600052603260045260246000fd5b8181038181111561076957610769611967565b634e487b7160e01b600052603160045260246000fd5b6020815260006112556020830184611795565b6000808354611c6781611996565b60018281168015611c7f5760018114611c9457611cc3565b60ff1984168752821515830287019450611cc3565b8760005260208060002060005b85811015611cba5781548a820152908401908201611ca1565b50505082870194505b50929695505050505050565b60008154611cdc81611996565b808552602060018381168015611cf95760018114611d1357611d41565b60ff1985168884015283151560051b880183019550611d41565b866000528260002060005b85811015611d395781548a8201860152908301908401611d1e565b890184019650505b505050505092915050565b8581526001600160a01b038516602082015260a060408201819052600090611d7690830186611ccf565b828103606084015261188f8186611ccf56fea2646970667358221220270029e6aac0a8cd1d7d65e904e1a13649f786913a90a3b3260c8012ca17166464736f6c63430008140033",
  "linkReferences": {},
  "deployedLinkReferences": {}
}