{
  "contractName": "LandRegistry",
  "abi": [
    {
      "anonymous": false,
      "inputs": [
        {
          "indexed": false,
          "internalType": "uint256",
          "name": "id",
          "type": "uint256"
        },
        {
          "indexed": false,
          "internalType": "address",
          "name": "owner",
          "type": "address"
        },
        {
          "indexed": false,
          "internalType": "string",
          "name": "location",
          "type": "string"
        },
        {
          "indexed": false,
          "internalType": "string",
          "name": "ipfsHash",
          "type": "string"
        },
        {
          "indexed": false,
          "internalType": "uint256",
          "name": "timestamp",
          "type": "uint256"
        }
      ],
      "name": "LandRegistered",
      "type": "event"
    },
    {
      "anonymous": false,
      "inputs": [
        {
          "indexed": false,
          "internalType": "uint256",
          "name": "id",
          "type": "uint256"
        },
        {
          "indexed": false,
          "internalType": "address",
          "name": "from",
          "type": "address"
        },
        {
          "indexed": false,
          "internalType": "address",
          "name": "to",
          "type": "address"
        }
      ],
      "name": "LandTransferred",
      "type": "event"
    },
    {
      "inputs": [],
      "name": "landCounter",
      "outputs": [
        {
          "internalType": "uint256",
          "name": "",
          "type": "uint256"
        }
      ],
      "stateMutability": "view",
      "type": "function"
    },
    {
      "inputs": [
        {
          "internalType": "uint256",
          "name": "",
          "type": "uint256"
        }
      ],
      "name": "lands",
      "outputs": [
        {
          "internalType": "uint256",
          "name": "id",
          "type": "uint256"
        },
        {
          "internalType": "address",
          "name": "owner",
          "type": "address"
        },
        {
          "internalType": "string",
          "name": "location",
          "type": "string"
        },
        {
          "internalType": "string",
          "name": "ipfsHash",
          "type": "string"
        },
        {
          "internalType": "uint256",
          "name": "timestamp",
          "type": "uint256"
        }
      ],
      "stateMutability": "view",
      "type": "function"
    },
    {
      "inputs": [
        {
          "internalType": "string",
          "name": "_location",
          "type": "string"
        },
        {
          "internalType": "string",
          "name": "_ipfsHash",
          "type": "string"
        }
      ],
      "name": "registerLand",
      "outputs": [],
      "stateMutability": "nonpayable",
      "type": "function"
    },
    {
      "inputs": [
        {
          "internalType": "uint256",
          "name": "_id",
          "type": "uint256"
        },
        {
          "internalType": "address",
          "name": "_newOwner",
          "type": "address"
        }
      ],
      "name": "transferLand",
      "outputs": [],
      "stateMutability": "nonpayable",
      "type": "function"
    },
    {
      "inputs": [
        {
          "internalType": "uint256",
          "name": "_id",
          "type": "uint256"
        }
      ],
      "name": "getLand",
      "outputs": [
        {
          "components": [
            {
              "internalType": "uint256",
              "name": "id",
              "type": "uint256"
            },
            {
              "internalType": "address",
              "name": "owner",
              "type": "address"
            },
            {
              "internalType": "string",
              "name": "location",
              "type": "string"
            },
            {
              "internalType": "string",
              "name": "ipfsHash",
              "type": "string"
            },
            {
              "internalType": "uint256",
              "name": "timestamp",
              "type": "uint256"
            }
          ],
          "internalType": "struct LandRegistry.Land",
          "name": "",
          "type": "tuple"
        }
      ],
      "stateMutability": "view",
      "type": "function"
    }
  ],
  "bytecode": "0x608060405234801561000f575f80fd5b506109728061001d5f395ff3fe608060405234801561000f575f80fd5b5060043610610055575f3560e01c806324642681146100595780639e29ce181461006e578063c798ff7d1461008a578063e261f1e51461009d578063f02dd53f146100c1575b5f80fd5b61006c61006736600461062a565b6100e1565b005b61007760015481565b6040519081526020015b60405180910390f35b61006c61009836600461068a565b6101d1565b6100b06100ab3660046106c3565b6102a9565b60405161008195949392919061071d565b6100d46100cf3660046106c3565b6103ed565b604051610081919061076b565b60018054905f6100f0836107d6565b90915550506040805160a08101825260018054808352336020808501918252848601888152606086018890524260808701525f938452908390529490912083518155905191810180546001600160a01b0319166001600160a01b0390931692909217909155915190919060028201906101699082610880565b506060820151600382019061017e9082610880565b50608082015181600401559050507f0c03e39d4c11aaf9930ce7c2af04a11b633e83eb79f83a279d026f663d274819600154338484426040516101c595949392919061071d565b60405180910390a15050565b5f828152602081905260409020600101546001600160a01b0316331461023d5760405162461bcd60e51b815260206004820152601760248201527f4f6e6c79206f776e65722063616e207472616e73666572000000000000000000604482015260640160405180910390fd5b5f828152602081815260409182902060010180546001600160a01b0319166001600160a01b03851690811790915582518581523392810192909252918101919091527f1080b2f211753e5090f26ef7ffdc6bb3e66a125c7290200d10b502160bb1f566906060016101c5565b5f6020819052908152604090208054600182015460028301805492936001600160a01b03909216926102da906107fa565b80601f0160208091040260200160405190810160405280929190818152602001828054610306906107fa565b80156103515780601f1061032857610100808354040283529160200191610351565b820191905f5260205f20905b81548152906001019060200180831161033457829003601f168201915b505050505090806003018054610366906107fa565b80601f0160208091040260200160405190810160405280929190818152602001828054610392906107fa565b80156103dd5780601f106103b4576101008083540402835291602001916103dd565b820191905f5260205f20905b8154815290600101906020018083116103c057829003601f168201915b5050505050908060040154905085565b6104256040518060a001604052805f81526020015f6001600160a01b0316815260200160608152602001606081526020015f81525090565b5f8281526020818152604091829020825160a0810184528154815260018201546001600160a01b031692810192909252600281018054929391929184019161046c906107fa565b80601f0160208091040260200160405190810160405280929190818152602001828054610498906107fa565b80156104e35780601f106104ba576101008083540402835291602001916104e3565b820191905f5260205f20905b8154815290600101906020018083116104c657829003601f168201915b505050505081526020016003820180546104fc906107fa565b80601f0160208091040260200160405190810160405280929190818152602001828054610528906107fa565b80156105735780601f1061054a57610100808354040283529160200191610573565b820191905f5260205f20905b81548152906001019060200180831161055657829003601f168201915b505050505081526020016004820154815250509050919050565b634e487b7160e01b5f52604160045260245ffd5b5f82601f8301126105b0575f80fd5b813567ffffffffffffffff808211156105cb576105cb61058d565b604051601f8301601f19908116603f011681019082821181831017156105f3576105f361058d565b8160405283815286602085880101111561060b575f80fd5b836020870160208301375f602085830101528094505050505092915050565b5f806040838503121561063b575f80fd5b823567ffffffffffffffff80821115610652575f80fd5b61065e868387016105a1565b93506020850135915080821115610673575f80fd5b50610680858286016105a1565b9150509250929050565b5f806040838503121561069b575f80fd5b8235915060208301356001600160a01b03811681146106b8575f80fd5b809150509250929050565b5f602082840312156106d3575f80fd5b5035919050565b5f81518084525f5b818110156106fe576020818501810151868301820152016106e2565b505f602082860101526020601f19601f83011685010191505092915050565b8581526001600160a01b038516602082015260a0604082018190525f90610746908301866106da565b828103606084015261075881866106da565b9150508260808301529695505050505050565b602081528151602082015260018060a01b0360208301511660408201525f604083015160a060608401526107a260c08401826106da565b90506060840151601f198483030160808501526107bf82826106da565b915050608084015160a08401528091505092915050565b5f600182016107f357634e487b7160e01b5f52601160045260245ffd5b5060010190565b600181811c9082168061080e57607f821691505b60208210810361082c57634e487b7160e01b5f52602260045260245ffd5b50919050565b601f82111561087b575f81815260208120601f850160051c810160208610156108585750805b601f850160051c820191505b8181101561087757828155600101610864565b5050505b505050565b815167ffffffffffffffff81111561089a5761089a61058d565b6108ae816108a884546107fa565b84610832565b602080601f8311600181146108e1575f84156108ca5750858301515b5f19600386901b1c1916600185901b178555610877565b5f85815260208120601f198616915b8281101561090f578886015182559484019460019091019084016108f0565b508582101561092c57878501515f19600388901b60f8161c191681555b5050505050600190811b0190555056fea2646970667358221220b28767dc984f307bf251bf399541a677139eb732a7999d139df9f047d446e13664736f6c63430008140033",
  "immutableReferences": {},
  "source": "// SPDX-License-Identifier: MIT\r\npragma solidity ^0.8.20;\r\n\r\ncontract LandRegistry {\r\n    struct Land {\r\n        uint id;\r\n        address owner;\r\n        string location;\r\n        string ipfsHash;\r\n        uint timestamp;\r\n    }\r\n\r\n    mapping(uint => Land) public lands;\r\n    uint public landCounter; // Automatically initialized to 0\r\n\r\n    event LandRegistered(uint id, address owner, string location, string ipfsHash, uint timestamp);\r\n    event LandTransferred(uint id, address from, address to);\r\n\r\n    function registerLand(string memory _location, string memory _ipfsHash) public {\r\n        landCounter++;\r\n        lands[landCounter] = Land(\r\n            landCounter,\r\n            msg.sender,\r\n            _location,\r\n            _ipfsHash,\r\n            block.timestamp\r\n        );\r\n        emit LandRegistered(landCounter, msg.sender, _location, _ipfsHash, block.timestamp);\r\n    }\r\n\r\n    function transferLand(uint _id, address _newOwner) public {\r\n        require(lands[_id].owner == msg.sender, \"Only owner can transfer\");\r\n        lands[_id].owner = _newOwner;\r\n        emit LandTransferred(_id, msg.sender, _newOwner);\r\n    }\r\n\r\n    function getLand(uint _id) public view returns (Land memory) {\r\n        return lands[_id];\r\n    }\r\n}",
  "sourcePath": "C:\\Users\\Taonga Banda\\Documents\\Blockchain based land registry system\\contracts\\LandRegistry.sol",
  "compiler": {
    "name": "solc",
    "version": "0.8.20+commit.a1b79de6.Emscripten.clang"
  },
  "schemaVersion": "3.4.14",
  "updatedAt": "2025-06-22T22:44:46.377Z",
  "devdoc": {
    "kind": "dev",
    "methods": {},
    "version": 1
  },
  "userdoc": {
    "kind": "user",
    "methods": {},
    "version": 1
  }
}